:100000000C9444070C944C330C948B070C948B0782
:100010000C948B070C948B070C948B070C948B0718
:100020000C948B070C948B070C94232B0C94DF2AD5
:100030000C94202C0C948B070C948B070C948B073E
:100040000C948B070C948B070C948B070C948B07E8
:100050000C948B070C94FC2B0C948B070C948B0743
:100060000C948B070C948B070C948B070C948B07C8
:100070000C948B070C948B070C948B070C948B07B8
:100080000C948B070C948B070C948B070C948B07A8
:100090000C948B070C948B070C948B070C948B0798
:1000A0000C948B070C948B070C948B0705010902A9
:1000B000A10185020901A1000509190129081500FE
:1000C0002501950875018102050109300931158165
:1000D000257F95027508810609381581257F9501D0
:1000E00075088106050C0A38021581257F95017572
:1000F000088106C0C005010980A101850319012AF4
:10010000B700150126B700950175108100C0050CD8
:100110000901A101850419012AA002150126A002E6
:10012000950175108100C00660FF0961A101096297
:10013000150026FF00952075088102096315002629
:10014000FF00952075089102C005010906A101056F
:100150000719E029E7150025019508750181029529
:1001600001750881010507190029FF150026FF0008
:100170009506750881000508190129059505750181
:100180009102950175039101C0000000000000007C
:10019000000000000000000000000000000000005F
:1001A000000000000000000000000000007E0F00C2
:1001B000D4FFFFFFC700000078000000000000002F
:1001C000002A2B28000000000000000000000000B2
:1001D0000000000029000000002C1E3420212224F1
:1001E000342627252E362D3738271E1F202122237F
:1001F0002425263333362E37381F04050607080911
:100200000A0B0C0D0E0F10111213141516171819D6
:100210001A1B1C1D2F3130232D3504050607080934
:100220000A0B0C0D0E0F10111213141516171819B6
:100230001A1B1C1D2F3130354C00047F3F1F6432C8
:1002400014643214783C1E1E140A050001010101D9
:100250000101010101020202020202020202030381
:100260000303030303030404040404040405050551
:100270000505060606060607070707070808080813
:10028000090909090A0A0A0B0B0B0C0C0C0D0D0DC0
:100290000E0E0E0F0F0F1010111111121213131456
:1002A00014151516161717181819191A1A1B1B1CCE
:1002B0001D1D1E1E1F202021222223242425262628
:1002C000272829292A2B2C2D2D2E2F30313232335D
:1002D0003435363738393A3B3C3D3E3F4041424366
:1002E0004445464748494A4C4D4E4F50515354554A
:1002F0005658595A5B5D5E5F616264656668696BFA
:100300006C6D6F7072737577787A7B7D7E80828377
:100310008587888A8C8E8F91939596989A9C9EA0BB
:10032000A2A3A5A7A9ABADAFB1B3B5B7BABCBEC0C8
:10033000C2C4C6C9CBCDCFD1D4D6D8DBDDDFE2E491
:10034000E7E9EBEEF0F3F5F8FAFDFFFFAA7F554081
:10035000000102030405060708090A0B0C0D0E0F25
:10036000101112131415161718191A1B1C1D1E1F15
:1003700020212241424344453C3D3E3F40373839ED
:100380003A3B32333435362D2E2F303128292A2B63
:100390002C23242526272223252628292A2C2D2FE5
:1003A0003032333536383A3B3D3E4042434547498B
:1003B0004A4C4E5051535557595A5C5E60626466C0
:1003C00068696B6D6F71737577797B7D7F818385CC
:1003D00087898A8C8E90929496989A9C9E9FA1A3CE
:1003E000A5A7A8AAACAEAFB1B3B4B6B8B9BBBCBEF2
:1003F000BFC1C2C3C5C6C7C9CACBCCCDCED0D1D26E
:10040000D2D3D4D5D6D7D7D8D9D9DADADBDBDBDC6F
:10041000DCDCDCDCDDDDDDDDDCDCDCDCDCDBDBDB1B
:10042000DADAD9D9D8D7D7D6D5D4D3D2D2D1D0CE7B
:10043000CDCCCBCAC9C7C6C5C3C2C1BFBEBCBBB980
:10044000B8B6B4B3B1AFAEACAAA8A7A5A3A19F9EFE
:100450009C9A98969492908E8C8A89878583817FC6
:100460007D7B79777573716F6D6B696866646260A7
:100470005E5C5A5957555351504E4C4A4947454373
:1004800042403E3D3B3A3836353332302F2D2C2A10
:1004900029282625232229001E001F0020002100D4
:1004A00022002F00350014001A0008001500170064
:1004B0002D002B0004001600070009000A004C0064
:1004C000E1001D001B000600190005002C00E000E3
:1004D000E300E2003504815F2C004C004600270059
:1004E00026002500240023003000310013001200F4
:1004F0000C0018001C002E00340033000F000E000A
:100500000D000B002A00E50038003700360010000F
:10051000110028004F00520051005000825F280057
:100520002A0044003A003B003C003D003E002F0200
:1005300035021E021F022002210222022D022B0080
:100540001E001F002000210022004C00E1002300BB
:1005500024002500260027002C00E000E300E20034
:100560003504815F2C004C004500430042004100EF
:1005700040003F00300231022702260225022402F9
:1005800023022E02340233020F000E000D000B0076
:100590002A00E50038023702360210001100280058
:1005A0004D004B004E004A00825F28002A004400A4
:1005B0003A003B003C003D003E002F0235021E0287
:1005C0001F022002210222022D022B001E001F000A
:1005D0002000210022004C00E1002300240025001F
:1005E000260027002C00E000E300E2003504815FD4
:1005F0002C004C00450043004200410040003F00F9
:1006000030023102270226022502240223022E0292
:10061000340233020F000E000D000B002A00E5002B
:10062000380237023602100011002800845F855F0F
:100630004E004A00825F28002A00000000000000EF
:1006400000000000000000000000000000000000AA
:10065000000000000000000000000000000000009A
:10066000000000000000000000000000000000008A
:10067000000000000000000000000000000000007A
:100D5000000000000000010001000100010001008E
:100D6000010001000100005CC25CC35CC65CC55CA4
:100D7000010001000100BF5CC15CBE5CBD5C010004
:100D8000010001000100010001000100010001005B
:100D9000010001000100010001000100010001004B
:100DA0000100010001000100010001000100C95C17
:100DB000CA5CC75CC85C01000100010001000100C1
:100DC000010001000100010001000100010001001B
:100DD000010001000100010001000100010001000B
:100DE000010009025B00030100A0FA0904000001F0
:100DF00003010100092111010001224000070581C2
:100E00000308000A0904010002030000000921117F
:100E100001000122220007058203200001070503CB
:100E20000320000109040200010300000009211150
:100E3000010001227B000705840320000A12010043
:100E40000200000008EEFE606000010102000118CF
:100E5000034500720067006F004400610073006882
:100E6000005600390039000000180354006F007567
:100E70000063006800730065006E0073006F00720D
:100E8000000000040309040011241FBECFEFDAE0C4
:100E9000DEBFCDBF04B603FE27C080913C04909115
:100EA0003D04A0913E04B0913F048730904BA74091
:100EB000B04BD1F410923C0410923D0410923E04C9
:100EC00010923F0414BE84B7877F84BF0FB6F89496
:100ED000A895809160008861809360001092600006
:100EE0000FBEE0E0F8E3099512E0A0E0B1E0ECE627
:100EF000FDE602C005900D92A430B107D9F724E0B9
:100F0000A4E0B2E001C01D92AC33B207E1F70E9449
:100F1000472C0C9475360C940000FC01AC014B5F1F
:100F20005F4F8FEF91E32191822728E030E087FF28
:100F300009C0880F892721503109C9F7E417F5073F
:100F400091F70895880FF7CFE8EDF0E080818E7F6C
:100F500080831092E2001092DA001092E100A0EE7D
:100F6000B0E08C9181608C9380818F77808319BCF5
:100F7000A7EDB0E08C918E7F8C9380818F7E8083F3
:100F80001092210408952091E4003091E50095E647
:100F9000A9012091EC00822F817020FF06C0809172
:100FA000E80080FF06C080E008952091E80022FD5F
:100FB0001AC080912E04882389F0853089F08091B1
:100FC000EB0085FD0FC02091E4003091E500421751
:100FD0005307F9F29150E1F684E0089582E0089514
:100FE00083E0089581E00895EF92FF920F931F939D
:100FF000CF937C018B010E94C307C82F811117C0BA
:101000008091E80085FD0BC08091E8008E77809389
:10101000E8000E94C307882399F3C82F08C0F7018E
:1010200081917F018093F1000150110949F78C2FC4
:10103000CF911F910F91FF90EF9008958091300410
:1010400087FF13C08091E80082FF06C08091E8000E
:101050008B778093E80004C080912E048111F2CF39
:10106000089580912E048823D9F38091E80080FFB1
:10107000F8CF8091E8008E77ECCF982F9093E9001D
:10108000242F762F50E0891731F07091EC002091D9
:10109000ED005091F00021FD07C09F5F973071F780
:1010A0008093E90081E008953091EB003E7F30931A
:1010B000EB003091ED003D7F3093ED003091EB007F
:1010C00031603093EB007093EC002093ED0050936F
:1010D000F0002091EE0027FDE0CF80E00895CF9250
:1010E000DF92EF92FF920F931F93CF93DF93C8EDA0
:1010F000D0E088818F7E8883E7EDF0E08081816099
:10110000808384E082BF81E08093210488818E7F88
:10111000888302EE10E0F80110821092DA0081EE6E
:10112000C82ED12CF601108288818F778883888120
:101130008068888388818F7D888319BC10922E04F3
:1011400010922F0410922D0410922C0490EEE92E90
:10115000F12CF70180818B7F808388818160888377
:1011600042E060E080E00E943D08F60180818E7FD1
:101170008083F801808181608083808188608083A2
:10118000F70180818E7F8083888180618883DF91F1
:10119000CF911F910F91FF90EF90DF90CF90089526
:1011A000FC01809136049091370486179707A0F0D0
:1011B0006115710529F49091E8009E779093E800FD
:1011C00090E06115710551F4911108C08091E8001B
:1011D00082FF34C080E00895BC01F2CF80912E04DC
:1011E0008823C1F18530C1F18091E80083FD30C0D2
:1011F0008091E80082FDEACF8091E80080FFE1CF96
:101200008091F3002091F200382F6115710519F0DB
:101210002830310558F091E02830310509F090E090
:101220002091E8002E772093E800CBCF8191809326
:10123000F100615071092F5F3F4FE7CF80912E047D
:10124000882341F0853041F08091E80083FFBECFD4
:1012500081E0089582E0089583E0089508958091E3
:101260002304089587E797E7909301088093000887
:1012700088E19AE00FB6F894A895809360000FBEBD
:1012800090936000FFCF9C014FB7F89480911A04AF
:1012900090911B04A0911C04B0911D044FBF821BB0
:1012A000930B08952FB7F89460911A0470911B0462
:1012B00080911C0490911D042FBF08952FB7F894BE
:1012C00080911A0490911B04A0911C04B0911D04FC
:1012D0002FBF08952091170430911804281739075B
:1012E00071F09093180480931704E0911504F09125
:1012F0001604309721F00084F185E02D09940895BB
:1013000020911304309114042817390771F0909339
:10131000140480931304E0911504F091160430979F
:1013200021F00680F781E02D09940895E0911504DD
:10133000F0911604309739F022E0DC012C93048000
:10134000F581E02D09940895FA01811101C0FB0196
:1013500009940895E6E3F3E0118282818460828338
:10136000089580910E04982F9E7F29F481708260E9
:1013700080930E0408958A34E8F381708864F8CF6E
:10138000AF92BF92DF92EF92FF920F931F93CF9392
:10139000DF93082F162FE901E42FF0E0E55BFD4F06
:1013A000611110C0E4915E2F4E2F4983E8835A8368
:1013B000DF91CF911F910F91FF90EF90DF90BF9041
:1013C000AF900895E62EF12C4491D42EE42FF0E056
:1013D00026E0829FC00111242FEF30E0B9010E9466
:1013E000DA34802F90E0880F991F55E5569FD00181
:1013F000579FB00D11248A1B9B0B982F990F890FB3
:101400005901AE18BF08AE9ED001AF9EB00DBE9E72
:10141000B00D11245B2F189F80011124012F11277B
:101420005901A01AB10AAE9E8001AF9E100DBE9E5A
:10143000100D11245901A81AB108AE9CC001AF9C2F
:10144000900DBE9C900D1124892F9927281B390BD4
:101450002E9FC0012F9F900D3E9F900D1124E92FCC
:1014600062307105A1F050F46115710509F49DCF4A
:101470006130710581F0EB2F512F97CF64307105EA
:1014800069F080F06630710509F48FCFF4CFE42F56
:101490004B2F592F8ACFE42F412F87CFEB2F542F7B
:1014A000492F83CF4B2F5D2DE12F7FCF0E945E0907
:1014B0009C0190912C0380912D03982B21F0309367
:1014C00029032093280390912E0380912F03982BBA
:1014D00021F030932703209326038AE293E00C94B3
:1014E000960940912C03803F59F480912D0387FF8A
:1014F0000DC010922D0341110BC01092240308C09F
:10150000813F81F480912D0318169CF3442381F0D0
:1015100080912E0390912F03892B09F05AC01092CD
:1015200023030895823F49F447FFF0CF10922C0324
:1015300080912D038111ECCFE0CF833F19F4141675
:10154000ACF3E4CF90912E03893F29F41916F4F6F9
:1015500010922E03DBCF8A3F19F497FFD7CFF8CF35
:1015600090912F038B3F29F497FFD0CF10922F0338
:10157000CDCF8C3F19F41916CCF3C8CF9CE0980F4F
:10158000953090F4845F990B21E030E0B90102C0FE
:10159000660F771F8A95E2F7CB01809590912B0318
:1015A000892380932B03B2CF8D3F31F480912503A3
:1015B0008E7F80932503AACF8E3F21F4809125034F
:1015C0008D7FF7CF8F3F09F0A1CF809125038B7FCF
:1015D000F0CF08958091250380FD16C081FD16C0CF
:1015E00082FD16C0809123038823A1F0883280F405
:1015F00028E0829FC001112468E270E00E94EE346E
:10160000862F672B39F0089582E0089584E00895CD
:1016100088E0089581E008958091250380FD14C03D
:1016200081FD14C082FD16C080912403882381F0BF
:10163000843180F422E3829FC001112464E170E0D0
:101640000E94EE34862F08958CE0089589E1089574
:1016500085E0089582E30895803F31F40E940C0BE9
:10166000819580932D030895813F19F40E940C0BFE
:10167000F8CF823F31F40E940C0B819580932C03AC
:101680000895833F19F40E940C0BF8CF893F29F489
:101690000E94EA0A80932E0308958A3F21F40E9453
:1016A000EA0A8195F7CF8B3F31F40E94EA0A8195CF
:1016B00080932F0308958C3F19F40E94EA0AF8CF13
:1016C0009CE0980F953070F4845F990B21E030E036
:1016D00001C0220F8A95EAF780912B03822B809319
:1016E0002B0308958D3F31F4809125038160809311
:1016F000250308958E3F21F4809125038260F7CF62
:101700008F3FB9F7809125038460F1CF80911D034D
:10171000F901808380911B038183089580E00895FF
:1017200078940895E0919602E930A4F48AE0E80202
:10173000F0011124EF5EFE4F0084F185E02D30971B
:1017400049F029EB32E04091980269E972E080911A
:10175000970209940895E4E8F2E0838980934501B3
:10176000848980935C010895F894E82FE295EF70E6
:10177000F0E031A1282F2F7081E090E001C0880FA8
:101780002A95EAF7982F9095932391A392A1892BFC
:1017900082A30C94900B9091EE0292FF06C0282F2A
:1017A00028712830F9F4877F846093FF06C0282FC2
:1017B00028712831F1F4877E84612091EF0220FFA7
:1017C00006C0382F38713830D9F4877F816021FF07
:1017D00006C0282F28712831D1F4877E816194FDBD
:1017E000877E0895282F24712430F9F68B7F886036
:1017F000DCCF282F2471243101F78B7E8861DDCF67
:10180000382F3171313019F78E7F8860E0CF282F63
:101810002171213121F78E7E8861E1CFCF93DF9353
:10182000EC0182389105A9F1D8F58133910509F4CD
:1018300096C048F58932910509F48AC08A9709F45F
:1018400095C0C11521E5D20708F0BCC0C11530E52F
:10185000D30708F014C1C83ED10508F09CC0C03EB3
:10186000D10560F5C83AD10508F087C0C53AD10561
:1018700008F0FDC0C130D10509F12097F9F0C4305E
:10188000D105E0F440C08533910509F45AC0C997E9
:10189000C1F68091EE02837089F0C0EED0E00EC0F8
:1018A000833E910599F170F4803E910501F1823EED
:1018B000910539F68091EE0282FD21C0CE01DF91C3
:1018C000CF910895863E910561F1873E910571F1B2
:1018D000843E910509F0B5CF8091EF0281FFEECFF4
:1018E0008091EE02C7EED0E084FD0DC0E7CF80917D
:1018F000EE0280FD12C19091EF0290FFDFCFC3EEA8
:10190000D0E084FFDBCFD0E0C0E0D8CF8091EE0202
:1019100082FD06C19091EF0290FDBFCF84FFCECF34
:10192000F2CF8091EE0283FDDDCFC8CF8091EE0231
:1019300083FDF9C09091EF0291FFF0CFC4EED0E0AB
:10194000BDCF8091EE0285FFB9CFC9E2D0E0B6CF1E
:101950008091EE0285FFB2CFC5E3D0E0AFCF80919A
:10196000EE0286FFABCFCAE2D0E0A8CF8091EE02B4
:1019700086FFA4CFC1E3D0E0A1CFCF3BD10518F6BD
:10198000C85AD0E0CC0FDD1FCE57DE4F0990D8816A
:10199000C02DD46493CFC11540E2D40758F4C115CB
:1019A00081E0D80708F08ACFC03FD10508F4ABCF5B
:1019B000D06584CFC11590E4D90708F4A4CFDF70B7
:1019C000D06A7CCFC11525E5D20700F5C11534E5F5
:1019D000D30708F08AC0C11543E5D40708F071C0E9
:1019E000C11582E5D80708F467C0CE018370992736
:1019F00021E030E002C0220F331F8A95E2F7C6953E
:101A0000C69580E2C89FE001112452C0C11599E536
:101A1000D907A8F4C11528E5D20708F06BC0C11595
:101A200036E5D30708F06FCF8C2F0E94CB0BC82F61
:101A3000D0E0DC2FCC27CC27DF71D0623FCFC1159F
:101A40004AE5D40708F45BC0CE0190568115904258
:101A500008F059CF8D2F8F710E94CB0B90E0982FFB
:101A6000882788279F719C012C2BE901E6CFC55A56
:101A7000D0E0C158DE4FC881D0E0D0641FCFCE0186
:101A8000E4E096958795EA95E1F783702C2F2695EB
:101A90002695237040E2249F90011124382B8C2F2F
:101AA0008370C1E0D0E002C0CC0FDD1F8A95E2F761
:101AB000C22BD32BDC6802CFDC2FCC27C16FD06ABE
:101AC000FDCECE018370992721E030E002C0220FC5
:101AD000331F8A95E2F7C695C69590E2C99FE0014B
:101AE0001124C22BD32BDA68E9CEDC2FCC27C46FAC
:101AF000D06AE4CEDC2FCC27C06FD06ADFCE8C2F2B
:101B00008F700E94CB0B34E0D695C7953A95E1F7DC
:101B1000CF709C2FEC01D069D1CEC9E3D0E0CECEFE
:101B2000C2EED0E0CBCEC6EED0E0C8CE8091770238
:101B300081111092770208958095909176029823F2
:101B40009093760208958091760290917502892B88
:101B500090917402892B80930602909177029923C9
:101B600091F0892B8093060220E088E092E0FC014E
:101B70003191CF0131112F5FF2E08E309F07B9F71D
:101B800021110E94960DE0911504F09116043097F2
:101B900031F00280F381E02D86E092E0099408950F
:101BA000E8E0F2E09191891303C0DF0111971C92E4
:101BB00092E0EE30F907B1F70895A8E0B2E0EFEF58
:101BC00090E02D91821751F0EF3F19F4211101C0DF
:101BD000E92F9F5F9630A9F7EF3F09F408950E2E85
:101BE000000CFF0BEA5FFD4F828308958091720223
:101BF00090914102981301C008958F5F8770FACFCA
:101C000027E0929F800D1124982F977086958695D6
:101C1000869523E0829FF0011124E05EFD4F50E0A5
:101C200040E080E0219130E0092E02C036952795F2
:101C30000A94E2F721703327042E01C0220F0A9480
:101C4000EAF7822B4F5F5F4F4330510559F70895F4
:101C500027E0929F800D1124982F977041E001C0DA
:101C6000440F9A95EAF786958695869593E0899F25
:101C7000F0011124E05EFD4F90E080E070E05191B2
:101C8000DF0111979B01082E02C0369527950A9413
:101C9000E2F7217021952527242325272C930196EF
:101CA0008330910561F7089590E080E00E948009FB
:101CB00090E080E00E946A0910927502109274020E
:101CC0000E94A30D86E0EAE2F3E0DF011D928A950F
:101CD000E9F71092240310922303109225030C9429
:101CE000560A80933B040C94540E90913B0421E0DF
:101CF00030E001C0220F8A95EAF7892F867086307E
:101D000021F4892F822B0C94710E822F80958923C8
:101D1000FACF21E030E001C0220F8A95EAF7209542
:101D200080913B0482230C94710E909173028095F4
:101D3000892380937302282F277091F4282F082E6F
:101D4000000C330B9217130659F09091EF0292FD9D
:101D500007C08595859585950E94890E109273021E
:101D6000089521E030E001C0220F8A95EAF78091C2
:101D70003B04822B0C94710E809378020C94540EC9
:101D8000882321F00E949C0D0C94A30D08958823B4
:101D900039F090917602982B909376020C94A30DD3
:101DA0000895CF93DF93C0911602C80F41F41092AB
:101DB000160260E070E0CB01DF91CF9108958C2F87
:101DC00064E10E94CC34D92F682F880F770B880BE1
:101DD000990B0E94EE35D0931602CD5EC73260F3A8
:101DE00010921702E9CFCF93DF93C0911702C80F6B
:101DF00041F41092170260E070E0CB01DF91CF91C7
:101E000008958C2F6AE00E94CC34D92F682F880F58
:101E1000770B880B990B0E94EE35D0931702C75FA2
:101E2000C33160F310921602E9CF0F931F93CF9343
:101E3000DF93C82FD62F082F10E06003B0011124C4
:101E4000072E000C880B990B0E94EE352D2F0D2EBE
:101E5000000C330B37FF03C0319521953109233036
:101E6000310584F021E02C0F2330D0F41D167CF4D2
:101E700033E0C39FB0011124072E000C880B990B8F
:101E80000E94EE35DF91CF911F910F910895C80107
:101E9000880F991F880F991FB801681B790BECCF29
:101EA000CC5FC93078F71D1634F4B801660F771F80
:101EB000660F771FE1CF2CEF2003B001219F700D3B
:101EC0001124DACF80931E047093200460931F04C2
:101ED00080912E048430F9F48093E9008FEF909183
:101EE000E800815095FD06C095ED9A95F1F7000048
:101EF0008111F5CF8091E80085FF0DC050E040E0F2
:101F000063E070E08EE194E00E94F4078091E800C5
:101F10008E778093E8000895BC0184E00C94620FF2
:101F2000BC0183E00C94620F9C0184E08093E90083
:101F30009FEF8091E800915085FD06C085ED8A9560
:101F4000F1F700009111F5CF8091E80085FF0CC0FA
:101F500050E040E066E070E0C9010E94F407809123
:101F6000E8008E778093E8000895CF93DF93EC012B
:101F700081E08093E9008FEF9091E800815095FD1A
:101F800006C095ED9A95F1F700008111F5CF80918B
:101F9000E80085FF14C050E040E068E070E0CE014A
:101FA0000E94F4078091E8008E778093E80088E033
:101FB000FE01A4E2B4E001900D928A95E1F7DF9171
:101FC000CF910895CF92DF92EF920F931F93CF930B
:101FD000DF93CDB7DEB7C25DD1090FB6F894DEBF8F
:101FE0000FBECDBF60917A0180910E0480FF4CC07E
:101FF000E0E5F3E09E012F5F3F4F8E010D521F4F32
:10200000C901A4914A2F50E0DA01AA0FBB1FA40F07
:10201000B51FA45CBC4FCD90DD90EC90D901CD9262
:10202000DD92ED929D013196A017B10751F72091F5
:10203000790143E0249F800D911D1124539A2BB107
:10204000277F3BB138605FB7F894FC01649FE00DD7
:10205000F11D1124BF018617970749F55FBFEFE512
:10206000F4E03197F1F700C00000CE52DF4F0FB619
:10207000F894DEBF0FBECDBFDF91CF911F910F91BE
:10208000EF90DF90CF90089580917B0190917C013B
:1020900023E0829FF0011124E45CFC4F891708F0D3
:1020A000A7CF1182108212828F5F3396F7CFDC01A7
:1020B0004D91CD01E8E03BB9000000C047FF2BB9CE
:1020C000440F000000C000C000C02BB900C0EA955A
:1020D00091F7C1CF0F931F93CF93DF93EC0110E0E3
:1020E00000E090917D019017110609F06CF40E94B8
:1020F000E20F8C8190E00196817099278C83DF91AB
:10210000CF911F910F91089520917B01A801420F5B
:10211000511D9A01220F331F240F351F245C3C4FA1
:102120004C816091100480910F04969590171106D0
:1021300051F04CF0442349F0409111040E94C00931
:102140000F5F1F4FCECF4423B9F340E0F7CF8F92FC
:102150009F92AF92BF92CF92DF92EF92FF920F9336
:102160001F93CF93DF93EC014C81042F10E0980173
:10217000D8010E9439359B01AC010E944F354B01BB
:102180005C01E0E2F0E0E01BF10BA5E5B0E0AC01A2
:102190009B010E944F356B017C019F01DF010E9472
:1021A00031359B01AC010E945A359B01AC01280DD1
:1021B000391D4A1D5B1DC701B6010E940235F22E72
:1021C000822F90E039E23F1560F143E0249F9001B7
:1021D000112435952795122F109500E085E5E82EFE
:1021E000EF1880917D01081758F10E94E20F9C8141
:1021F00081E0992319F0903219F48FEF80937801E0
:1022000080917801890F8C83DF91CF911F910F917D
:10221000FF90EF90DF90CF90BF90AF909F908F9006
:10222000089525E530E0B901681B790B9B01220F69
:10223000331F260F371F37FFCCCF2F5F3F4FC9CF3C
:102240008E2D01FD8F2D20917B01622F600F77274E
:10225000771F9B01220F331F260F371F245C3C4F33
:10226000412F609110040E94C0090F5FBACFEF9216
:10227000FF920F931F93CF93DF93EC018C81811119
:1022800009C081E08C8310923A0392E09093770129
:102290008093760180917B0190917C0123E0829F65
:1022A000F0011124E45CFC4F891768F110E003E0B1
:1022B00060917D01161768F10E94E20F809176010E
:1022C00020913A03280F20933A0390917701980FB9
:1022D00090937701191654F4022E000C330B4091A1
:1022E0007D014150550B2417350734F081958093BB
:1022F0007601813009F41C82DF91CF911F910F91FB
:10230000FF90EF9008951182108212828F5F3396B2
:10231000CBCFE12EF12C70E0C7010E94EE3420916A
:102320007B01820F482F50E020913A03022E000CCF
:10233000330BE216F306BCF020917701022E000C5D
:10234000330B2E153F057CF0809F90011124245CF7
:102350003C4F409111046091100480910F040E9441
:10236000C0091F5FA5CFFA01EE0FFF1FE40FF51F95
:10237000E45CFC4F118210821282F3CF8F929F9205
:10238000AF92BF92CF92DF92EF92FF920F931F9383
:10239000CF93DF93EC018A81BB24BA9480FD02C005
:1023A000BB24B394A0907D018C81811109C081E090
:1023B000B81228C08FEF8A0D8093390381E08C8397
:1023C000F12CE12C46E4942EEA14F8F00E94E20F7E
:1023D0008091390391E0B9125FC0811158C080919A
:1023E0007D018150809339031C82DF91CF911F9131
:1023F0000F91FF90EF90DF90CF90BF90AF909F90A4
:102400008F90089510923903D9CF00917B010E0D62
:102410001F2D111DC801880F991F080F191F045C7B
:102420001C4FF80111821082128234E0C32ED12C8D
:10243000812C80913903880D87342CF1692D0E94FD
:10244000CC34892F082E000C990B8E159F0591F422
:10245000809111048C9DA0018D9D500D11245595E6
:1024600047955595479598016091100480910F0408
:102470000E94C0098B0CF1E0CF1AD108D1F68FEF82
:10248000E81AF80AA1CF87FFDDCF8A0DDBCF815094
:1024900080933903BC82A9CF90E0019660917D01C1
:1024A00070E00E94EE34809339038C839ECFEF92CC
:1024B000FF921F93CF93DF93EC0110E0EE24EA9498
:1024C000F12C60917D01161770F00E94E20F9A8145
:1024D0008C8190FF27C08F5F8C83DF91CF911F91FC
:1024E000FF90EF90089520917B01422F410F5527D7
:1024F000551FCA019A01220F331F280F391F245C70
:102500003C4F70E0C7010E94EE34962F8C814091C1
:10251000110460911004199F800D11240E94C009BC
:102520001F5FCFCF8150D8CF90910E0490FF14C081
:1025300090917B0120917C0133E0939FF001112465
:10254000E45CFC4F921710F00C94E20F81836083DF
:1025500042839F5F3396F6CF08950F931F93CF93D7
:10256000DF9300D00F92CDB7DEB78C0180913B0393
:1025700081110AC09E012F5F3F4F4FEF6FEF0E9406
:10258000C0098A8180933B03F8016481613069F05E
:1025900080913B0340E0662361F040E0623011F43B
:1025A00040913B0380E060E004C060913B0340E069
:1025B00080E00E949412F801848190E0019663E02B
:1025C00070E00E94EE3484830F900F900F90DF91A3
:1025D000CF911F910F910895CF93DF9300D00F9269
:1025E000CDB7DEB790910E0490FF0AC09E012F5F19
:1025F0003F4F0E94C0094B8169818A810E949412D9
:102600000F900F900F90DF91CF910895CF93DF93AC
:10261000EC01EEE0F4E0438162818C810E94EC12D7
:102620008C818F5F8C83DF91CF910895CF93DF935F
:10263000EC01EC81F0E0EA56FC4F4491EEE0F4E06E
:10264000628181810E94EC128C818F5F8C83DF918B
:10265000CF910895EEE0F4E080818E7F80830E9428
:10266000AA09E6E3F3E08281816082832FEF80E7AD
:1026700092E0215080409040E1F700C000000C94AF
:10268000E20F9F92AF92BF92CF92DF92EF92FF92B2
:102690000F931F93CF93DF937C015B016A018091BD
:1026A0001A0301E010E08A3010F40AE010E0C1E003
:1026B000D0E0F894B501C701F6010995982E0E9463
:1026C000900B911004C021960C171D076CF4892DF6
:1026D000DF91CF911F910F91FF90EF90DF90CF90FE
:1026E000BF90AF909F900895CC9F9001CD9F300DEB
:1026F000300D112490E080E045E34A95F1F70000A9
:10270000019682179307C1F7D4CF8091830281117C
:1027100018C088EC9091E30097FD10C0EFE3FCE94E
:102720003197F1F700C000008150A1F782E080935B
:1027300083020E94A40710922E0403C081E08093BC
:10274000830281E090918302913011F080E008953E
:1027500008950E948513882351F0E0911504F091AB
:102760001604309721F00190F081E02D099480E06B
:102770000895882309F452C0823871F40E94A91385
:1027800081FF4CC089E30E94DD0D0E94A30D89E307
:102790000E94D00D0C94A30D833859F40E94A91304
:1027A00080FF3CC083E50E94DD0D0E94A30D83E500
:1027B000EFCF843859F40E94A91382FF2FC087E419
:1027C0000E94DD0D0E94A30D87E4E2CF9CEF980FDD
:1027D000913AF0F290E2980F983050F4877091E0BF
:1027E00001C0990F8A95EAF7892F0E949C0DD2CFDC
:1027F0009BE5980F933020F490E080E00C948009E2
:1028000098E5980F973120F490E080E00C946A09E5
:10281000803F20F00E94710A0C94560A08950F938D
:102820001F930E948513882321F01F910F910C9410
:1028300052090E9452090091EA021091EB02209184
:10284000EC023091ED02600F711F821F931F1F91E8
:102850000F9108950E94851381110C945E090E94C6
:102860000F14CB010895CF93C82F882309F490C08B
:102870008238C1F40E94A91381FD8AC089E30E94B5
:10288000DD0D0E94A30D2FEF81EE94E021508040DA
:102890009040E1F700C0000089E30E94D00DCF9185
:1028A0000C94A30D8338A1F40E94A91380FD70C07D
:1028B00083E50E94DD0D0E94A30D2FEF81EE94E0D1
:1028C000215080409040E1F700C0000083E5E5CF53
:1028D0008438A1F40E94A91382FD5AC087E40E94A3
:1028E000DD0D0E94A30D2FEF81EE94E0215080407A
:1028F0009040E1F700C0000087E4CFCF8CEF8C0F51
:10290000813A68F4E8E0F2E08191C817D9F122E059
:10291000EE30F207C9F78C2F0E94DD0DC0CF80E2A8
:102920008C0F883068F4C77021E030E001C0220FBE
:10293000CA95EAF780917602822B80937602AFCF18
:10294000EBE5EC0FE33040F4F0E0E158FE4F80811E
:1029500090E0CF910C948009E8E5EC0FE73150F45A
:10296000F0E0EE0FFF1FEE57FE4F80819181CF9177
:102970000C946A09C03F60F08C2F0E942C0BCF9101
:102980000C94560A8C2F0E94D00D0E94A30DC3CF29
:10299000CF9108951F93CF93DF93182FD0E0C0E01D
:1029A000893311F4C0E5D0E0812F0E9433142097C1
:1029B00031F4812FDF91CF911F910C94B9138FE9DE
:1029C0009FE00197F1F700C000002197F0CF0F932F
:1029D0001F93CF93DF93C62FD42F022FFC01828148
:1029E0008823A1F060933A040E945E099093390411
:1029F00080933804C77081E001C0880FCA95EAF758
:102A0000DF91CF911F910F910C94C70E80913A04E2
:102A1000681335C080913804909139040E944309AD
:102A20008837910560F510E21D0FCD17B9F080E2EF
:102A30008C0F883040F4C77081E001C0880FCA95C0
:102A4000EAF70E94C00E183048F481E09D2F97707D
:102A500001C0880F9A95EAF70E94C70E802F0E9446
:102A6000CA14183098F4D77081E001C0880FDA9545
:102A7000EAF7DF91CF911F910F910C94C00EC770B0
:102A800081E001C0880FCA95EAF7F3CFDF91CF91BB
:102A90001F910F91089598E020E83AE03A95F1F7F8
:102AA00000C04698382F322351F0599A3AE03A95AF
:102AB000F1F700C0469A2695915079F708955998F4
:102AC000F5CF89982AE02A95F1F700C00E944B15AE
:102AD00085E38A95F1F70000599A98E080E02AE0B2
:102AE0002A95F1F700C046982AE02A95F1F700C030
:102AF000469A29B122FB222720F9880F822B915078
:102B000071F79AE09A95F1F700C0899A0895CF93EA
:102B100080E00E946115813129F090E0C0E08C2FA7
:102B2000CF91089580EA8A95F1F782E00E946115BD
:102B300087FFF3CF80EA8A95F1F783E00E94611561
:102B4000C82F80EA8A95F1F784E00E946115982FDA
:102B5000E6CFCF93DF93C7E5D2E060E0CE010E94DD
:102B600082352196C11584E0D807B9F7DF91CF915E
:102B700008956F927F928F929F92AF92BF92CF9261
:102B8000DF92EF92FF920F931F93CF93DF9386E92B
:102B9000C82E84E0D82E91ECE92EF12CE701CC5818
:102BA000D10936011BC0F50185909490692DC801AB
:102BB0000E948235682DC80101960E94823582E00C
:102BC000A80EB11C0E5F1F4FC017D10761F78EE032
:102BD000680E711C2E96CE15DF0529F08E010E5061
:102BE00011095301E0CF7E018CE8E80EF11C8CE85E
:102BF000C80ED11C81EFE81682E0F80679F6DF9165
:102C0000CF911F910F91FF90EF90DF90CF90BF90E9
:102C1000AF909F908F907F906F900895CF93DF93A8
:102C2000D82FCFEF8111C2E26C2F83E290E00E9497
:102C300082356FEFD11165E084E290E00E94823529
:102C40006C2F85E290E0DF91CF910C94823580E08B
:102C50000E940E1660E086E290E00E9482350E949B
:102C6000B9150E94A91581E00C940E16CF93C0915E
:102C7000EF02C2FB992790F9981799F080FBC2F9EF
:102C8000C093EF026091EE0284E090E00E948235F2
:102C90006C2F82E290E00E94823582E0CF910C940A
:102CA000950ECF9108950F931F93CF93DF93C42F69
:102CB000D0E0CC0FDD1F2EE0629FC00DD11D11248E
:102CC0003CE8839FC00DD11D1124CE0187960E9440
:102CD0006E35082F10E0102F0027CE0188960E9435
:102CE0006E359801282BC901DF91CF911F910F916B
:102CF0000895462F843038F47A3028F4673018F479
:102D0000672F0C94531690E080E00895CF92DF92E5
:102D1000FF920F931F93CF93DF936C0100913B04BD
:102D200080917802082BC7E0D0E010E0FC2EC801AB
:102D30000C2E02C0959587950A94E2F780FD0CC091
:102D40002197A0F7F12C8F2DDF91CF911F910F913B
:102D5000FF90DF90CF900895B6018C2F0E947916D6
:102D60000E940E0C019761F3EECFCF93DF93EC013D
:102D70000E948616BE010E947916DF91CF910C94B5
:102D80000E0CFC01808191810E94B516292F2F70B5
:102D900092959F7092509E3078F4E92FF0E0E958B8
:102DA000F94C0C942435803F19F020F4883E20F42F
:102DB00081E00895843FE1F380E00895883EC0F308
:102DC000813FD1F7F5CF822F869586958695089518
:102DD00083E290E00E946E35823289F484E290E0D2
:102DE0000E946E35853059F485E290E00E946E3580
:102DF00091E0823209F090E0892F8170089580E09F
:102E0000FCCFCF9384E090E00E946E35C82F82E221
:102E100090E00E946E35982F8C2FCF91089560918D
:102E20000E04669570E04BE050E08BE691E00E9466
:102E30005236892B19F481E0809337030E942A14BB
:102E400090933103809330038091380384608093A2
:102E500038030895CF92DF92EF92FF926B017C01CD
:102E60000E94B109B701A60188E090E0FF90EF90C1
:102E7000DF90CF900C949435AF92BF92CF92DF92B7
:102E8000EF92FF920F931F93CF93DF9300D00F9297
:102E9000CDB7DEB7182FF62E042FE22E90910E0438
:102EA00090FF3AC0E92FE695AE2FB0E0A153BE4F98
:102EB0008C91809336039E7F9230E1F59E012F5FC7
:102EC0003F4F812F0E94C0094B8169818A810E94F6
:102ED000941280910F04811308C0809110048F1107
:102EE00004C080911104801729F08091380382601A
:102EF0008093380310930F04F09210040093110490
:102F0000EE2051F060910E0470910F048091100436
:102F1000909111040E942A170F900F900F90DF914B
:102F2000CF911F910F91FF90EF90DF90CF90BF90C6
:102F3000AF900895823019F400911104CACF863001
:102F400019F410910F04C5CF8930D9F3893109F6EE
:102F5000E9518E2F8170D82EE695F0E0E55BFC4FAD
:102F6000A590B490C12CBB2460917D01C61618F0C9
:102F70000E94E20FAECF2C2D30E0A29EC001A39E96
:102F8000900DB29E900D112470E00E94DA34812FD2
:102F9000D11013C0860F40917B01420F532F511D5A
:102FA0009A01220F331F240F351F245C3C4F402F02
:102FB0006F2D0E94C009C394D7CF861BECCFEEE0E3
:102FC000F4E0438121E1421B08F440E021E062810A
:102FD00081810C943C17EEE0F4E0438121E1420F43
:102FE00008F44FEF21E0628181810C943C17EEE000
:102FF000F4E0628121E1621B08F460E021E043819A
:1030000081810C943C17EEE0F4E0628121E1620FD3
:1030100008F46FEF21E0438181810C943C17EEE0CE
:10302000F4E0818121E04381628188500C943C1757
:10303000EEE0F4E0818121E043816281885F0C94BD
:103040003C1780911204882319F081508093120458
:1030500060910E0470910F048091100490911104FE
:103060000C942A1780911204833018F48F5F809398
:10307000120460910E0470910F04809110049091DD
:1030800011040C942A1790910E0490FF3BC091708C
:1030900081112EC0926090930E048091380381605C
:1030A00080933803662351F060910E0470910F04F1
:1030B00080911004909111040E942A1760910E04CF
:1030C000669570E04BE050E08BE691E00E9452364E
:1030D000892BA9F00E94AA0981E08093330320E0A4
:1030E000409111046091100480910F040C943C17DE
:1030F000853210F09864CFCF880F982BCCCF0E94E8
:103100000F17EACF089580910E048695815009F437
:1031100084E261E00C94431880910E0486958F5FE1
:10312000853208F081E061E00C94431890910E0420
:1031300090FF07C09695981720F0961710F40C94FE
:103140008C1861E00C944318EEE0F4E083E0808397
:1031500011828FEF828383831482A6E3B3E01296F9
:103160008C911297836012968C9360817181828119
:1031700093810C942A171092FD021092FE02109275
:10318000FF0210920003EDEFF2E081E08083818383
:103190004091FD025091FE026091FF027091000388
:1031A00083E190E00C94943510927602E8E0F2E02E
:1031B00086E0DF011D928A95E9F70C94540E1F9367
:1031C000CF93DF93CDB7DEB7AA970FB6F894DEBFE3
:1031D0000FBECDBF80E394E02091F100DC012D9380
:1031E000CD01B4E088339B07B9F780913104833077
:1031F00009F472C0B8F4813009F449C0823009F48E
:10320000B3C08091E80083FF8BC28091300490911D
:1032100031049A3008F084C2E92FF0E0EB57F94C02
:103220000C9424358A3009F48EC08B3009F471C0B7
:10323000893039F780913004813219F78091340454
:1032400090913504009711F00297D9F68091E8002B
:10325000877F8093E8008091E80082FF38C09091DA
:10326000F3008091F200029731F48091F1008130F7
:1032700011F0863021F48091F10080932304809135
:10328000E8008B778093E8000E941E08BACF8091F7
:103290003004813A09F0B5CF8091E800877F8093B0
:1032A000E8008091340490913504892B61F468E042
:1032B00084E294E070E00E94D0088091E8008B776F
:1032C0008093E8009ECF60E090E080E0F3CF8091B3
:1032D0002E048111C0CF95CF80913004813A09F03E
:1032E00090CF8091340490913504892B09F089CFD7
:1032F0008091E800877F8093E8008091E80080FF5C
:10330000FCCF80917E018093F1008091E8008E7760
:10331000B9CF80913004813209F073CF80913404A9
:1033200090913504892B09F06CCF8091E800877F5C
:103330008093E8000E941E088091320480937E01F1
:103340000E94D4185ECF80913004813209F059CFA9
:103350008091E800877F8093E8000E941E0880919A
:103360003304809322044DCF80913004813A09F0D8
:1033700048CF8091E800877F8093E8008091E80043
:1033800080FFFCCF80912204BECF803899F0823834
:1033900009F0C6C1809134048F70873008F0C0C135
:1033A0008093E9008091EB0085FB882780F91092DB
:1033B000E90006C080912C0490912D049111826047
:1033C0009091E800977F9093E8008093F10010922D
:1033D000F1008091E8008E779FC1882309F48DC1A8
:1033E000823009F09DC180913204811190C1809199
:1033F00034048F702FEF280F263008F091C180938E
:10340000E9002091EB0020FF82C1933031F48091DC
:10341000EB0080628093EB007AC19091EB009061A9
:103420009093EB0021E030E001C0220F8A95EAF78B
:103430002093EA001092EA008091EB008860EACFC6
:1034400081116EC1109132041F778091E300807862
:10345000812B8093E3008091E800877F8093E800D0
:103460000E941E088091E80080FFFCCF8091E3005D
:1034700080688093E30082E0111183E080932E0442
:103480004FC18058823008F04BC1209132043091F6
:1034900033042C3DE3E03E07A1F583E08A838AE212
:1034A00089834FB7F894DE01139620E03EE051E2A5
:1034B000E32FF0E050935700E49120FF03C0E29522
:1034C000EF703F5FEF708E2F90E0EA30C0F0C7964C
:1034D0008D939D932F5F243159F74FBF8091E80062
:1034E000877F8093E8006AE270E0CE0101960E9437
:1034F000D0088091E8008B778093E80011C1C096D6
:10350000E7CF8091340490913504432F5527433001
:10351000510509F44AC078F54130510509F47AC0E3
:103520008BE590E0E2EEFDE04230510509F0F8C095
:103530002091E800277F2093E80020913604309105
:1035400037048217930708F49C0140E021153105E8
:1035500009F065C0411163C08091E80082FDC9CFC8
:1035600080912E04882329F2853019F28091E80099
:1035700083FFF2CFBECF4132510509F43CC0423245
:10358000510509F0CDC08330910508F0C9C0FC0198
:10359000EE0FFF1FE950FE4F0190F081E02D8C509F
:1035A0009E4FDC018C9190E01AC033272130310509
:1035B000D1F02115310561F02230310509F0B0C09C
:1035C000EFE4FEE0E4918E2F90E0EFE4FEE007C030
:1035D000E3E8FEE0E4918E2F90E0E3E8FEE0009760
:1035E00009F49EC0A5CFE9E6FEE0E4918E2F90E0BD
:1035F000E9E6FEE0F4CF8330910508F091C0880F32
:10360000991FFC01E350FE4F0190F081E02D89E00D
:1036100090E08ECF82E190E0EDE3FEE089CF8091F3
:103620002E04882309F465CF853009F462CF809198
:10363000E80083FD5ECF8091E80082FD8DCF809110
:10364000E80080FF83CF9091F3008091F200211574
:10365000310519F08830910550F041E0089709F0E4
:1036600040E08091E8008E778093E8006FCF44912E
:103670004093F1003196215031090196E8CF80380E
:1036800009F04EC08091E800877F8093E800809128
:103690002F048093F1009DCE811142C0109132041D
:1036A0001230F0F58091E800877F8093E800109356
:1036B0002F040E941E08112311F084E005C08091A0
:1036C000E30087FDFACF81E080932E0442E061ECB5
:1036D00081E00E943D0842E261EC84E00E943D08E6
:1036E00042E261EC82E00E943D0842E260EC83E04D
:1036F0000E943D0880912E0413C0809132048130D5
:1037000079F481E0933009F080E080932D041092E9
:10371000E9008091E800877F8093E8000E941E08FE
:103720008091E80083FF0AC08091E800877F809342
:10373000E8008091EB0080628093EB00AA960FB6C0
:10374000F894DEBF0FBECDBFDF91CF911F910895DA
:1037500069EE7EEF90E080E00E94A03560E082E0BC
:1037600090E00E94823560E083E090E00E94823524
:103770001092780260E084E090E00E94823560E080
:1037800082E290E00E94823560E085E090E00E9455
:10379000823560E086E090E00E9482356FEF87E03E
:1037A00090E00E94823540E050E0BA0188E090E06D
:1037B0000E94943560E08DE090E00E94823540E008
:1037C00050E0BA0188E190E00E94943560E087E122
:1037D00090E00E94823540E050E0BA018CE190E038
:1037E0000E94943570E060E080E290E00E94A03595
:1037F00040E050E0BA0188E190E00E94943580E01A
:103800000E940E160E94271640E050E0BA018FE099
:1038100090E00E9494350C94BB183F924F925F92B7
:103820006F927F928F929F92AF92BF92CF92DF92D0
:10383000EF92FF920F931F93CF93DF93CDB7DEB735
:1038400062970FB6F894DEBF0FBECDBF8C01FC01AE
:1038500083819481892B31F08081918189238F3FED
:1038600009F041C662960FB6F894DEBF0FBECDBF19
:10387000DF91CF911F910F91FF90EF90DF90CF904C
:10388000BF90AF909F908F907F906F905F904F9080
:103890003F9008950E948616F82E682F89819A819C
:1038A0000E94280E69817A818F2D0E9479167C01F1
:1038B000F8018281882309F409C6970122513F4506
:1038C0002031310508F0EBC58FEF93E00E946E3593
:1038D000FEEEEF0E77E5872E72E0972E8823A9F192
:1038E00080917302877009F4BDCFF801828188232B
:1038F00009F4B8CF8091EF0282FDB4CF82E06296E6
:103900000FB6F894DEBF0FBECDBFDF91CF911F91F0
:103910000F91FF90EF90DF90CF90BF90AF909F906E
:103920008F907F906F905F904F903F900C94950E8A
:10393000811424E09206A1F2C4010E946E35811127
:1039400001C0EA943FEF831A930AE110F1CF1C8281
:103950001B82442443946AE0362E74018FEFE81AE8
:10396000F80AC4010E946E3589831A82882309F4FB
:10397000B7CF9FEF980F933000F58A83498292E08A
:10398000890E911CC7010E946E358B83882309F430
:10399000A7CFFE0131967F01F70120812223E9F2B2
:1039A000213009F049C091818281913041F4F2E0E7
:1039B000EF0EF11C0E94CA1409C04701EACF9230F1
:1039C00049F422E0E20EF11C0E9433143FEFE31AA7
:1039D000F30AE2CF933031F432E0E30EF11C0E949F
:1039E000B913F4CF943021F08FEFE81AF80AEECF34
:1039F00092E0E90EF11C30E020E0B7016F5F7F4FED
:103A0000F70141818053990B8A30910550F0215084
:103A10003109E0F28FE99FE00197F1F700C0000063
:103A2000F6CF329EF001339EF00D11249C012E0F33
:103A30003F1F842F7B01E1CFE22FF0E0E754FE4FE0
:103A40005490822F86958695869590E0FC01E755E7
:103A5000FE4F64902770712C022E02C075946794FB
:103A60000A94E2F7E1E06E227724FC01E756FE4F6C
:103A7000A490B12C022E02C0B594A7940A94E2F748
:103A8000F1E0AF22BB24FC01E757FE4FC490D12CDC
:103A900002C0D594C7942A95E2F721E0C222DD2422
:103AA0006114710419F081EE0E943314A114B10461
:103AB00019F086EE0E943314852D0E94CA14AB289B
:103AC00019F086EE0E94B913672819F081EE0E9462
:103AD000B913CD2809F47ACF8CE26CCF81E00E9433
:103AE000B10E83E00E94750EFBCE81E00E94890E2C
:103AF000F8CF82E0F4CF882309F4F2CE61E083E0CE
:103B000090E00E94823581E00E94BC0EE9CE8823BD
:103B100021F081E00E94B10E03C081E00E94890E75
:103B200080E1E0CF882311F082E0F4CF82E0F6CF8D
:103B3000882321F080E10E94B10ED2CE80E10E9464
:103B4000890ECECE882309F4CBCE8091FD0290E081
:103B5000019666E070E00E94DA348093FD024091A5
:103B6000FD025091FE026091FF02709100038FE010
:103B700090E00E949435E091FD02F0E0EE0FFF1F0F
:103B8000ED53FE4F8081982F91959093040180937F
:103B90000301A6CE882309F4A3CE8091FE0290E013
:103BA000019666E070E00E94DA348093FE02409154
:103BB000FD025091FE026091FF02709100038FE0C0
:103BC00090E00E949435E091FE02F0E0EE0FFF1FBE
:103BD000ED53FE4F8081982F919590930201809331
:103BE00001017ECE882331F08091180291E089276F
:103BF00080931802109217021092160271CE882339
:103C0000C9F38091150291E0892780931502F2CFC4
:103C100093EFE9169CE5F90609F480C0C0F4F8EDCD
:103C2000EF16FCE5FF0609F475C029EDE2162CE558
:103C3000F20609F47FC037EDE3163CE5F306B9F46C
:103C400026E241EE61EEC8010E94E71449CE95EFED
:103C5000E9169CE5F90609F469C008F463C027E297
:103C600045EE66EEF6EFEF16FCE5FF0661F38823FE
:103C700009F44AC410923A0423E0E2162DE5F20654
:103C800008F05BC03AEFE3163CE5F30630F4C701F9
:103C900082509C45449708F056C00E9401179093AB
:103CA000EF028093EE0290E1E9169CE5F90609F433
:103CB00031C108F0A3C0F8E0EF16FCE5FF0609F4F7
:103CC0001BC108F06CC034E0E3163CE5F30609F4D0
:103CD00005C108F04EC092E0E9169CE5F90609F42A
:103CE000F7C08091EE028260E3E0EE16ECE5FE069E
:103CF00009F4F1C06091EE02F090EF0284E090E0F0
:103D00000E9482356F2D82E290E00E9482350E94EF
:103D1000D418E6CD27E245EE65EE95CF26E241EEDA
:103D200060EE91CF27E245EE64EE8DCF26E241EEC4
:103D300062EE89CF28E241E0EFCF81E6E8168DE51B
:103D4000F80609F4AACFF6E1EF16FCE5FF0609F044
:103D50009FC4809176028A7A91E009F490E0909372
:103D600019028111FCC089E20E94DD0D0E94A30DA1
:103D7000B7CD8091EE028061F6E0EF16FCE5FF061C
:103D800009F4A9C08091EE02886027E0E2162CE5D4
:103D9000F20608F4A0C08091EE0280629CC080917F
:103DA000EE028D7F3CE0E3163CE5F30609F493C098
:103DB00078F48091EE028C609AE0E9169CE5F906B1
:103DC00009F489C008F49CC08091EE028E7F83C004
:103DD0008091EE02877FFEE0EF16FCE5FF0609F416
:103DE0007AC08091EE028B7F2FE0E2162CE5F2067E
:103DF00008F471C08091EE028F7E6DC03CEFE31637
:103E00003CE5F30609F482C0A0F594E1E9169CE5CF
:103E1000F90609F493C098F4F2E1EF16FCE5FF0609
:103E200009F47CC08091EE028F7B23E1E2162CE541
:103E3000F20608F450C08091EE02837F4CC03AEF46
:103E4000E3163CE5F30609F44DC008F051C095E1D6
:103E5000E9169CE5F90609F04DCF8091EE0282FB50
:103E6000992790F921E0922790FB82F990FB83F942
:103E700032C0E114EDE5FE0609F456C0A0F48091CD
:103E8000EF0283602EEFE2162CE5F20671F18091CD
:103E9000EF028D7F3FEFE3163CE5F30630F18091B2
:103EA000EF028C7F22C082E0E8168DE5F80609F467
:103EB00054C008F44CC0E1E6EE16EDE5FE0609F04C
:103EC00019CF9091EE02892F8F7E94FF806103C0FD
:103ED0008091EE0281608093EE020CCF8091EE0221
:103EE0008460F9CF8091EF0281608093EF0202CF6E
:103EF0008091EF028260F9CF8091EE028064EBCF77
:103F00000E94D4188091EE028068E5CF8091EF0284
:103F10008E7FEBCF8091EE028F7DDDCF0E94D41893
:103F20008091EE028F77D7CF8091EF02982F9095F6
:103F300091708E7F892B90FB81F9D7CF0E94D41886
:103F40009091EE02892F97FB87F98058C4CF61E0EA
:103F50008EE090E00E948235CDCE60E0F9CF85E31F
:103F600003CF80911902811104C089E20E94D00D13
:103F7000FDCE85E3FBCF816080930E0461E08695E2
:103F80000E944318ADCC43E858E16CE878E10E9408
:103F9000A409A6CC4CE858E163E878E1F8CF48E101
:103FA00058E16FE078E1F3CF47EF57E163E078E164
:103FB000EECF4FED57E16BEE77E1E9CF4BEE57E1F6
:103FC0006FED77E1E4CF42E358E161E278E1DFCFE2
:103FD00061E081E0D5CF65E082E00E94961880CC58
:103FE00068E086E0FACF64E18FE0F7CF67E185E132
:103FF000F4CF62E289E1F1CF61E083E2C1CF0E94B8
:10400000D4189FEFE4E3FCE09150E040F040E1F78A
:1040100000C000000E94320981E060C380E05EC3FE
:10402000C7010E94000ED82E6AC32F2D2F70C22EFA
:104030008F2D807F19F0C29490EFC922DD20B9F056
:10404000CC2069F080E28E0D883010F0811009C01C
:1040500080917602C82AC09276020E94A30D8E2D0E
:104060004DC080917502C82AC0927502F6CF8E2D80
:104070000E94B913CC2009F443C080E28E0D883031
:1040800010F0811004C08C2D0E949C0D06C0C094BD
:1040900080917502C822C09275020E94A30D30C0A3
:1040A0003F2D3F70C32E8F2D807F803219F0C29438
:1040B00080EFC822882089F081E0881609F47FC04B
:1040C000DD2009F489C0BB2009F47FC0F801858197
:1040D00080FFC5CF8F70858378C02091EF0222FFCB
:1040E0004BC0DD2009F442C0CC2039F0809176022B
:1040F000C82AC09276020E94A30D80E00E94331469
:10410000E92DE850FF0B349710F40E94A913AA2060
:1041100009F4A8CB8091730280FDA4CBF801128230
:104120008595859585950E94B10EC8010E940D1C4C
:104130008091730285958595859562960FB6F89462
:10414000DEBF0FBECDBFDF91CF911F910F91FF90CA
:10415000EF90DF90CF90BF90AF909F908F907F9027
:104160006F905F904F903F900C94890E80E00E947A
:10417000B913CC2029F287CFDD20A1F090917702EE
:104180008C2D892BB11003C00E94C70EB9CFE1E07E
:10419000BE12FACF22FDB4CF981709F4B1CF8093A5
:1041A0007702AECFB11006C00E94960D8C2D0E94F2
:1041B000C00EA6CFF1E0BF1609F4A2CFF5CFDD20E7
:1041C00031F025E02B1508F49BCF8C2DDDCF34E0AA
:1041D0003B1508F495CFEACFBB2041F3F9E38F12EA
:1041E00057C12FEF37EE83E0215030408040E1F798
:1041F00000C000004DC18F2D86958695837061F0BB
:10420000813009F07DCFC7019370D11002C090E0DA
:1042100080E00E946A0974CFC7019370D11002C078
:1042200090E080E00E9480096BCF8E2DDD20C1F1EF
:104230000E942C0BEE2DE45FFF0BE530F105B0F58D
:1042400081E090E001C0880FEA95EAF726E0EAE114
:10425000F2E0DE01179601900D922A95E1F726E033
:10426000FE013796DE011D9601900D922A95E1F729
:104270002885DD20C1F0822B8E8786E0FE013D96E9
:10428000DE01119601900D928A95E1F786E0FE011C
:104290003196AAE1B2E001900D928A95E1F730CF14
:1042A0000E94710AC7CF80958223E6CF0E94560AEA
:1042B00027CF8F2D837091F5D11022CF4E2D4295AF
:1042C00046954770440F440F8E2D8F70042E01C009
:1042D000880F0A94EAF72E2D2071E4FE07C02FE024
:1042E00030E001C0220F4A95EAF720953F2D369520
:1042F00036953370323069F050F4409178023130A5
:1043000029F0822B84230E94BC0EFACE842B822BB0
:10431000FACF282B809178028227F5CF8695DD2071
:1043200011F08F2D8170882309F4EACE4E2D42952D
:1043300046954770440F440F8E2D8F70042E01C098
:10434000880F0A94EAF72E2D2071E4FE07C02FE0B3
:1043500030E001C0220F4A95EAF720953F2D3695AF
:1043600036953370323069F050F440913B0431306F
:1043700029F0822B84230E94710EC2CE842B822BC3
:10438000FACF282B80913B048227F5CFFF2DFF70B9
:10439000FF2EDD2029F08F2F0E94B10E8E2DF4CE3E
:1043A0008E2D0E94C00E8F2D0E94890EA9CE8E2DBB
:1043B00022EF8216B1F1281570F030EF8316D1F09C
:1043C00091EF891691F0DD2009F45DC0B11047CE60
:1043D0008F2D8F712AC0E3EF8E1651F1F4EF8F12FB
:1043E000F2CF8091EF0282FF2FC08F2D8F71DD20E1
:1043F000D9F21BC0DD2081F024E02B1508F480CE1B
:104400002F2D2F7181E090E001C0880F2A95EAF7E7
:1044100090913B048927AFCF35E03B1508F470CE6F
:10442000EFCF8F2D8F71D110BFCF0E94B10E68CE0C
:1044300080E0DD2009F49FCF9F2D9F7181E001C0B6
:10444000880F9A95EAF797CFDD2091F08F2D8F7125
:10445000F82E0E94B10E8091EF0282FD07C0E8E0C5
:10446000FE9EC00111248360809373028F2DDDCFE7
:1044700081E00E94950EF1E0FB1508F041CE82E04C
:104480000E94950E3DCEBB2039F0893309F4A9CEA8
:104490008E2D0E94B91334CE8F2D8F7185CFF0E110
:1044A000EF16FFE5FF0609F419CB21E1E2162FE52F
:1044B000F20609F41ECBF701E058FF45E830F1059C
:1044C00008F0A6CBE157F94C0C94243530E1E31603
:1044D0003FE5F30609F409CB91E1E9169FE5F906FA
:1044E00051F782E003CB85E0DE01119601900D9239
:1044F0008A95E1F7F801228189819A812111CAC93F
:104500000E94000EF82ECEC9F6E1EF16FCE5FF067C
:1045100009F427CD8091760282722CECE2162CE50C
:10452000F20609F450CD08F073C096ECE9169CE54C
:10453000F90609F434CD08F042C0F3ECEF16FCE5BF
:10454000FF0609F420CD50F532ECE3163CE5F30606
:1045500009F0C6C080910E0480FF0DCD8E7F809340
:104560000E0460910E0470910F04809110049091DC
:1045700011040E942A170E94AA09809138038160C1
:10458000809338032FEF30E782E0215030408040A5
:10459000E1F700C000000E94E20FA2C994ECE91606
:1045A0009CE5F90609F4F6CC4FE058E168E178E1C2
:1045B000E5ECEE16ECE5FE0609F4E9CC91C0F9EC69
:1045C000EF16FCE5FF0609F4F4CC88F437ECE316AB
:1045D0003CE5F30609F4E8CC43E058E167EF77E106
:1045E00098ECE9169CE5F90609F4D1CC79C0EAEC1F
:1045F000EE16ECE5FE0609F4E1CC41E258E162E397
:1046000078E1FBECEF16FCE5FF0609F4C0CC68C0CE
:1046100021EDE2162CE5F20609F4E5CCB8F48EECB7
:10462000E8168CE5F80609F4D6CC08F4D1CCEFEC0A
:10463000EE16ECE5FE0609F4D3CC6EE089E0F0ED71
:10464000EF16FCE5FF0609F4C8CC4AC024EDE216DB
:104650002CE5F20609F4CDCC78F482EDE8168CE571
:10466000F80609F4C3CC61E088E193EDE9169CE516
:10467000F90609F485CC34C0E5EDEE16ECE5FE064E
:1046800009F4BACCFDE5EF16FF0609F429C928C0E4
:104690002AE5E2162DE5F20609F4BECC68F4E11431
:1046A0008CE5F80609F4ABCC9EEDE9169CE5F9061D
:1046B000B9F40E94A81B14C9EBE5EE16EDE5FE0661
:1046C00009F4ACCCFCE5EF16FDE5FF0649F480915A
:1046D000EF0282FB882780F991E089270E94361635
:1046E000F8018281E080F180882309F499CCC70128
:1046F0000E948616D82E682FC7010E94280EB70187
:104700008D2D0E9479160E940E0C7C01882EF801D6
:10471000D280B580B2943FE0B3228091730287705B
:10472000C1F0AD2CDD20B1F08F2D807F803421F0E1
:1047300080E28E0D883068F08091EF0282FD09C022
:1047400082E00E94950E809173028770AA24A39440
:104750008111A12C9F2C92942FE09222FBE0F9155D
:1047600008F4CECCE92DF0E0E956F94C0C94243550
:104770001F93CF93DF9380914002807FA9F48091B3
:104780003D02882389F080917202D09141026091AC
:104790003B0270913C02A0913E02B0913F02C62FB5
:1047A000C72316E0D81304C0DF91CF911F9108955D
:1047B00090E0109711F0CF3F19F401968770F2CF77
:1047C000189F9001199F300D1124F901EE5BFD4FE8
:1047D00041814713F2CF40814613EFCF428141110F
:1047E000ECCF438154814A1B5B0B4837510528F7B6
:1047F000809140028F70806180934002F901E95BF3
:10480000FD4F80818F70806180838BE392E00E94F6
:104810000D1CDF91CF911F910C94F60DAF92BF92BA
:10482000CF92DF92EF92FF920F931F93CF93DF937C
:10483000CDB7DEB761970FB6F894DEBF0FBECDBF20
:104840008C0185E0F801DE011D9601900D928A959C
:10485000E1F7F801E2808BE3A82E82E0B82E6091A8
:104860003E0270913F026115710509F432C19091C9
:104870003B0240913C02892F84238F3F09F429C1D8
:1048800020813181C380D480F0903D02F601E61B87
:10489000F70BFF2009F4E8C080914002582F507FA9
:1048A000E837F10508F0ABC0511177C0FE2C431377
:1048B00021C092131FC0E1101DC08F7080618093D2
:1048C0004002C5010E940D1C80914002F8018583C1
:1048D0008F2D61960FB6F894DEBF0FBECDBFDF916E
:1048E000CF911F910F91FF90EF90DF90CF90BF90ED
:1048F000AF900895CD2829F0822F83238F3F09F0B0
:1049000003C180E0F82FF170DF2E80FF3CC0809162
:1049100072024091410256E0841315C02D873E87F4
:104920008D859E850E94B516292F22952F702230E5
:10493000F0F0243018F59F70F1F0F8019581907F28
:10494000D1F4D12C1EC090E0589FF001599FF00D7A
:104950001124EE5BFD4F6181361306C06081261382
:1049600003C06281E6120FC001968770D5CF9F7099
:1049700011F0882331F3805E883018F3C8010E945B
:104980000D1CFD2CA5CFEE2009F4A2CF8091400292
:10499000816080934002F12C9BCF431306C0921399
:1049A00004C0F801EE2009F479C0C8010E94C116C4
:1049B000882309F1EE20F9F080914002803270F0F6
:1049C00020913B0230913C0238872F831986DB8689
:1049D000CA868C87CE0107960E940D1C86E0F801DE
:1049E000ABE3B2E001900D928A95E1F70E94B82303
:1049F000FF24F3946DCFC8010E940D1CF9CF511113
:104A00000AC08BE392E00E940D1C86E0F501119232
:104A10008A95E9F7C0CF43130FC092130DC0E11080
:104A20000BC0F8018583C8010E940D1C86E0F501CA
:104A300011928A95E9F74CCFC8010E94C1168823CC
:104A4000D1F2EE20C1F280914002803238F2209102
:104A50003B0230913C023A8329831B82DD82CC8267
:104A60008E83CE010196B8CFE837F105F8F6FE2C1B
:104A7000EE2009F243131FC092131DC08091400223
:104A800080FD10C0982F907F69F0F8018583903FDA
:104A900031F0982F907F905F8F70892B8583C801AC
:104AA0000E940D1C86E0F801ABE3B2E001900D928C
:104AB0008A95E1F70DCFC8010E94C11681118ECFF2
:104AC00080914002816080934002C8010E940D1CC9
:104AD000FFCEEE2009F48FCFC8010E94C116F82E38
:104AE000882309F488CF86E0F801ABE3B2E00190B7
:104AF0000D928A95E1F780913B0290913C020E94D1
:104B0000B5160E94B823E4CE81E08E25FBCE1F931C
:104B1000CF93DF93CDB7DEB767970FB6F894DEBFBC
:104B20000FBECDBF4B8B5C8B6D8B7E8B8F8B6111E2
:104B3000109275021A8A198A85E0FE017396DE01C9
:104B40001D9601900D928A95E1F786E0FE013D9653
:104B5000DE01179601900D928A95E1F7CE01079636
:104B60000E940E24882389F016E0809172029091B1
:104B70004102891349C067960FB6F894DEBF0FBE95
:104B8000CDBFDF91CF911F91089586E0FE0137964A
:104B9000DE01119601900D928A95E1F78A859B8539
:104BA000892B11F38F81988589238F3FE9F220911A
:104BB000410230E0C9010196877099274091720245
:104BC0004817190671F40E94D418109241021092ED
:104BD000720286E0EBE3F2E0DF011D928A95E9F7CD
:104BE000C3CF96E0929FD001939FB00D1124AE5B8E
:104BF000BD4FFE01319601900D929A95E1F7809399
:104C000041020E94F60DB0CF819FC00111248E5B3E
:104C10009D4F0E940E24882309F4ADCF809172022B
:104C200090E0019687709927809372029ECFEF9251
:104C3000FF920F931F93CF93DF937901C82F880FB3
:104C4000DD0B41155105A9F08AE08C9FF0018D9F85
:104C5000F00D1124EF5EFE4F838194818C579D4FA0
:104C6000228130E04217530708F49A01A9010E94FB
:104C70006C36CE010E941534892B11F501151105F2
:104C8000E9F08AE08C9FF0018D9FF00D1124EF5E1A
:104C9000FE4F458150E00417150708F4A8018AE08B
:104CA0008C9FF0018D9FF00D1124EF5EFE4F668109
:104CB00077816C577D4FC7010E946C3681E001C03F
:104CC00080E0DF91CF911F910F91FF90EF900895B9
:104CD0000F931F93CF93DF93CDB7DEB728970FB60F
:104CE000F894DEBF0FBECDBF85E0EEE0F4E0DE015C
:104CF000119601900D928A95E1F78091360390917B
:104D00003703A09138038E839F83A887288540911D
:104D1000E6025091E7026091E8027091E9023FB724
:104D2000F89480911A0490911B04A0911C04B091F6
:104D30001D043FBF841B950BA60BB70B8436910552
:104D4000A105B10510F42223C1F010E000E030E02D
:104D500020E048E050E0BE016F5F7F4F83E00E949B
:104D60001726882369F00E9452096093E602709327
:104D7000E7028093E8029093E9021092380381E001
:104D800028960FB6F894DEBF0FBECDBFDF91CF914E
:104D90001F910F9108950F931F93CF93DF9300D02E
:104DA00000D0CDB7DEB74091E2025091E3026091AE
:104DB000E4027091E5022FB7F89480911A04909163
:104DC0001B04A0911C04B0911D042FBF841B950BE4
:104DD000A60BB70B11E084369105A105B10518F1BA
:104DE0000E940F146E5F7F4F8F4F9F4F69837A83AE
:104DF0008B839C8310E000E030E020E044E050E052
:104E0000BE016F5F7F4F82E00E941726182F882314
:104E100051F00E9452096093E2027093E302809382
:104E2000E4029093E502812F0F900F900F900F9066
:104E3000DF91CF911F910F910895EF92FF920F9301
:104E40001F93CF93DF9300D000D000D0CDB7DEB753
:104E50007B0101E010E09E012A5F3F4F50E040E0FF
:104E600070E060E080E00E941726182F882309F484
:104E70004FC04091DE025091DF026091E0027091DC
:104E8000E1022FB7F89480911A0490911B04A0912D
:104E90001C04B0911D042FBF841B950BA60BB70BF0
:104EA00084369105A105B10538F485E892E00E94A9
:104EB0008D079E81891761F105E010E09E012F5F4B
:104EC0003F4F50E040E070E060E081E00E94172634
:104ED000082F85E892E00E948D0711E09E819813CB
:104EE00010E0102301F10E9452096093DE027093DA
:104EF000DF028093E0029093E10285E0FE013196AB
:104F0000A9EDB2E001900D928A95E1F711E00BC096
:104F100085E0E5E8F2E0DE01119601900D928A95B8
:104F2000E1F71111EACF85E0E9EDF2E0D701019058
:104F30000D928A95E1F7812F26960FB6F894DEBF81
:104F40000FBECDBFDF91CF911F910F91FF90EF90DA
:104F500008957F928F929F92AF92BF92CF92DF92ED
:104F6000EF92FF920F931F93CF93DF93CDB7DEB7EE
:104F70002F970FB6F894DEBF0FBECDBF8E010F5F27
:104F80001F4F8AE0D8011D928A95E9F782EBE82E3F
:104F900081E0F82ED12CC12CAA24A394B12C23ECAF
:104FA000822E21E0922EF70181917F018F3F09F43B
:104FB00043C0F894E82FE295EF70F0E021A18F70E4
:104FC000A50102C0440F551F8A95E2F7CA01922F2E
:104FD000982B91A392A18095892382A30E94900B84
:104FE00000C0ECEBF1E0712C31E021912F3F09F48E
:104FF0007AC0A22FA295AF70B0E090968C9190E00D
:105000002F7002C0959587952A95E2F780FD6BC0B9
:10501000832F782A330F8E169F0639F7F7013197C1
:1050200080818F3F11F00E94B40B50EA5A95F1F73E
:10503000F801EC0DFD1D70828FEFC81AD80AA5E0AB
:10504000CA16D10409F0AFCF4AE050E0B80180EFB2
:1050500092E00E945F367C01892B41F08AE0F801E2
:10506000A0EFB2E001900D928A95E1F71091FB025A
:10507000E114F104D1F181E080937B020E945E098A
:1050800090937A02809379028091790290917A02CA
:105090000E944309059778F0A0EFB2E0E12FF0E01D
:1050A000E05FFC4F85EF92E02D9121938A179B07DB
:1050B000D9F710927B0281E090E0EF28D1F02F9693
:1050C0000FB6F894DEBF0FBECDBFDF91CF911F9119
:1050D0000F91FF90EF90DF90CF90BF90AF909F9097
:1050E0008F907F90089580E094CF80917B02811112
:1050F000CBCF0E948513F82EE091FB02882309F4A0
:1051000070C06E01BBE0CB0ED11C85E0D6011D92B4
:105110008A95E9F70E2F10E0005F1C4F80911A036B
:105120008A3060F54DE157E2B601C8010E94411393
:10513000882399F14BEC56E2B601C8010E94411355
:10514000882359F148E656E2B601C8010E9441138E
:10515000882319F110921A038091FA0290E045E039
:1051600050E0B601805F9C4F0E945F3621E02093A3
:105170008202892B49F5F12C8F2DA1CF80917C02E1
:1051800090917D020E944309843F914058F680919E
:105190008202811112C080E092CF80911A038F3F6A
:1051A00029F08F5F80931A038A30B0F20E945E0963
:1051B00090937D0280937C02EACF85E0F601119204
:1051C0008A95E9F710928202A091FA02B0E0A05FFE
:1051D000BC4F85E0FE013B9601900D928A95E1F768
:1051E000CBCFF0E0E05FFC4FF89485E0A5E8B2E0BB
:1051F00001900D928A95E1F785E892E00E948D0773
:10520000809384020E94900BF894C0908A02D09000
:105210008B02E0908C02F0908D0280917E02909142
:105220007F02A0918002B0918102C816D906EA06D9
:10523000FB06D1F0C0927E02D0927F02E092800203
:10524000F09281020E94851381110EC00E945209C2
:10525000C61AD70AE80AF90AC092EA02D092EB020B
:10526000E092EC02F092ED020E94900BF894809193
:105270009502882379F180FF0DC080918E0280FF16
:105280002CC090910E04916090930E0460E086957E
:105290000E9443188091950281FF09C020E040914F
:1052A00091026091900280918F020E943C17809140
:1052B000950282FF06C080919402882389F00E94A3
:1052C0000F178091950283FF03C081E08093330321
:1052D000109295020E94900B5ECF0E942A13DACFA3
:1052E0000E94AA09EECF4F925F926F927F928F92A7
:1052F0009F92AF92BF92CF92DF92EF92FF92CF93A5
:10530000DF93CDB7DEB76C970FB6F894DEBF0FBE54
:10531000CDBF86E0EAE1F2E0DE011D9601900D923C
:105320008A95E1F786E0FE013D96DE011196019037
:105330000D928A95E1F786E0FE013196DE015396E3
:1053400001900D928A95E1F70E9487157C010E94D9
:105350008513882309F4FEC08091180290911502EC
:105360008913C0C09E2D9F2981119DC009F090C056
:105370006091020180911D030E94150F2B013C01D9
:105380006091010180911B030E94150F4B015C018C
:10539000C12CD12C7601C98EDA8EEB8EFC8E109248
:1053A0001E0310921D0310921C0310921B03C301D5
:1053B000B2010E94B6356D8BC501B4010E94B635AD
:1053C0006E8BC701B6010E94B63561956F8B698DF2
:1053D0007A8D8B8D9C8D0E94B6356195688F86E0A5
:1053E000FE017396DE01119601900D928A95E1F708
:1053F00086E0FE013196AAE1B2E001900D928A9515
:10540000E1F786E0EAE1F2E0DE01179601900D9205
:105410008A95E1F786E0EFE0F2E0DE011196019077
:105420000D928A95E1F746E050E0BE016F5F7F4F35
:10543000CE0107960E945F36892B21F08AE192E027
:105440000E94960910921C0210921D0210921E02D8
:1054500010921F0286E0EAE1F2E0AFE0B2E00190D4
:105460000D928A95E1F76C960FB6F894DEBF0FBEE9
:10547000CDBFDF91CF91FF90EF90DF90CF90BF90A5
:10548000AF909F908F907F906F905F904F90089516
:10549000609104018E2D0E94150F2B013C0160913B
:1054A00003018F2D71CF911114C080911D030E94B3
:1054B000F30E698F7A8F8B8F9C8F80911B030E94D4
:1054C000D10E6B017C01812C912C540124013501FA
:1054D00066CF8E2D0E94F30E698F7A8F8B8F9C8FF3
:1054E0008F2DEDCFC0901D03D0901B0381111BC0E9
:1054F000609104018E2D0E94150F2B013C016091DB
:1055000003018F2D0E94150F4B015C018C2D0E9411
:10551000F30E698F7A8F8B8F9C8F8D2D0E94D10E09
:105520006B017C013CCF609102018C2D0E94150F14
:105530002B013C01609101018D2D0E94150F4B0143
:105540005C018E2D0E94F30E698F7A8F8B8F9C8F5A
:105550008F2DE4CF8E2D0E2C000C990B90931E03F3
:1055600080931D038F2D0F2C000C990B90931C031F
:1055700080931B036E2DEE0C770B880B990B0E940A
:10558000EE352B013C016F2DFF0C770B880B990B2F
:105590000E94EE354B015C01C12CD12C7601C98EE5
:1055A000DA8EEB8EFC8E03CF90E080E00E947C359B
:1055B000893E9E4F11F40C94E81680E008951F92E6
:1055C0000F920FB60F9211242F933F934F935F9337
:1055D0006F937F938F939F93AF93BF93CF93DF93FB
:1055E000EF93FF93D091E900DF708091EC00C82F1A
:1055F000C17080FDC0E81092E9008091F000877FC3
:105600008093F00078940E94DF181092E900809156
:10561000F00088608093F000CD2BCF70C093E9003C
:10562000FF91EF91DF91CF91BF91AF919F918F91BA
:105630007F916F915F914F913F912F910F900FBE8E
:105640000F901F9018951F920F920FB60F92112472
:105650002F933F934F935F936F937F938F939F937A
:10566000AF93BF93EF93FF938091E10082FF09C056
:105670008091E20082FF05C08091E1008B7F8093E2
:10568000E1008091DA0080FF24C08091D80080FF83
:1056900020C08091DA008E7F8093DA008091D9005B
:1056A00080FF9DC080E189BD82E189BD09B400FE13
:1056B000FDCF81E080932E0480912104811109C0E7
:1056C0000E94A4070E946F088091E200846080938A
:1056D000E2008091E10080FF17C08091E20080FF2E
:1056E00013C08091E2008E7F8093E2008091E200FF
:1056F00080618093E2008091D80080628093D8001E
:1057000019BC85E080932E048091E10084FF2BC0BA
:105710008091E20084FF27C080E189BD82E189BDDC
:1057200089B5982F917080FFFBCF8091D8008F7D35
:105730008093D8008091E1008F7E8093E10080917A
:10574000E2008F7E8093E2008091E200816080938E
:10575000E20080912F04882309F447C084E08093FD
:105760002E0480912E048091E10083FF27C0809158
:10577000E20083FF23C08091E100877F8093E100F6
:1057800082E080932E0410922F048091E1008E7F9E
:105790008093E1008091E2008E7F8093E20080910F
:1057A000E20080618093E20042E060E080E00E94DD
:1057B0003D088091F00088608093F000FF91EF91A8
:1057C000BF91AF919F918F917F916F915F914F9119
:1057D0003F912F910F900FBE0F901F90189519BCFD
:1057E00010922E041092210474CF8091E30087FD63
:1057F00093E090932E04B5CF78941F921FB61F921A
:1058000011248F939F93AF93BF9380911A0490912B
:105810001B04A0911C04B0911D040196A11DB11D93
:1058200080931A0490931B04A0931C04B0931D044E
:10583000BF91AF919F918F911F901FBE1F901895A0
:105840001F921FB61F9211248F939F93AF93BF9304
:1058500080911904811113C080911A0490911B0446
:10586000A0911C04B0911D044196A11DB11D80930F
:105870001A0490931B04A0931C04B0931D04BF91C1
:10588000AF919F918F911F901FBE1F901895CDB71C
:10589000DEB7AD970FB6F894DEBF0FBECDBF84B7AD
:1058A000877F84BF0FB6F894A895809160008861C7
:1058B00080936000109260000FBE80E890E00FB609
:1058C000F89480936100909361000FBE85B7806863
:1058D00085BF85B7806885BF8EE89BE09093050201
:1058E000809304020E94A4070E946F088091E20046
:1058F00084608093E200789480912E048823A1F044
:105900001091E9001F709091EC00892F817090FD3B
:1059100080E8182B1092E9008091E80083FD0E9436
:10592000DF181F701093E90082E084BD93E095BDFD
:105930009AEF97BD80936E001092EA021092EB02EC
:105940001092EC021092ED020E94E816811102C042
:105950000E9427160E948513809300018091000108
:10596000882309F46AC01092790183E280937A0156
:105970000E94851381110E94033380910001809160
:10598000000195E0811190E09093FB0285E0891B76
:105990008093FA0202EB11E0D8018D918D018F3FC7
:1059A00011F00E94B40BB1E0073B1B07A9F70CEB09
:1059B00011E073ECE72E71E0F72EF80181918F0171
:1059C0008F3F11F00E94B40BE016F106B1F78AE0A8
:1059D000E0E1F3E0DF01282F1D922A95E9F7E0EFDF
:1059E000F2E0DF011D928A95E9F70E94D42A811125
:1059F00002C00E94A81B82E090E00E946E35809356
:105A000005030E9401179093EF028093EE020E941B
:105A1000A927EFE3FCE93197F1F700C000000E94ED
:105A2000A9278091100380FF0CC06FEF7FEF90E0FB
:105A300080E00E94A0350E94320983E280937901C0
:105A400095CF83E090E00E946E350E94BC0E0E94CC
:105A5000BB180E948513811102C00E9406338091F9
:105A6000FC02811138C00E94D42A811104C00E9416
:105A7000A81B0E94A41888E090E00E9476356093ED
:105A80000E0470930F04809310049093110480917E
:105A900038038360809338036E7F71F40E94A418EA
:105AA00088E090E00E94763560930E0470930F04B6
:105AB00080931004909311040E94B1090E94AA09D6
:105AC00080910E0480FF04C060E086950E94431818
:105AD00081E08093FC0226982E983E9A519A819AF2
:105AE00052985A98469A599A899A5A9A8998FAE0F5
:105AF000FA95F1F700C08AEB0E944B1525E32A9531
:105B0000F1F700008AE50E944B154AE04A95F1F74B
:105B100000C0599A899A8FE79FEAA2E0815090408D
:105B2000A040E1F700C000000E94871580910503A6
:105B300083608093050386E89BE090936A018093DD
:105B4000690185E190E0909365018093640185E3AC
:105B500090E0909368018093670183E190E00E9458
:105B60007635172F6093FD027093FE028093FF023B
:105B700090930003E62FF0E0EE0FFF1FED53FE4F72
:105B8000E080F180B70190E080E00E94EC35905811
:105B90000E94B63560930401E0920301E12FF0E02A
:105BA000EE0FFF1FED53FE4F00811181B80190E011
:105BB00080E00E94EC3590580E94B6356093020157
:105BC0000093010185E091E0909316048093150401
:105BD00058E1652E712C6AE1A62E63E0B62E20E412
:105BE000522E80912E0400E112E1853009F430C27A
:105BF0000E94A92781110E94520990E1C92E93E0C9
:105C0000D92EE6E0F3E0D60110E000E0802EED9022
:105C100081918E1509F42BC28E25912CFF24F394CB
:105C2000982F9F2109F41EC20E948513882399F0A2
:105C300099A28AA2EF2081E009F480E08BA30E9460
:105C40005E098160782F9DA38CA349A15AA16BA105
:105C50008DA10E948725F801EA5FFC4F8081F8261C
:105C6000F08280913703882309F464C08091360361
:105C7000E0910E04E695E81BE0933203823009F0D0
:105C80000DC2F0E0E95BFD4FE4910E2F10E086E1DC
:105C9000E82E83E1F82E80913303882361F010927F
:105CA00033030E942A14909331038093300310929F
:105CB0003503109234030E942A14E0913003F091CE
:105CC00031039C012E1B3F0B2F3F3F4798F520913E
:105CD00003032223B1F010920303209101033091BA
:105CE0000203821B930B8F3F9F4758F4205D3A4875
:105CF00030930203209301038091380388608093DE
:105D000038038090340390903503E00FF11FF09337
:105D10003103E093300380E393E0F701099580912C
:105D2000340390913503892B29F4892819F081E0F7
:105D30008093030386E0EAE2F3E0DE01119601902E
:105D40000D928A95E1F7F0902C03E0902D031091CD
:105D50002E0300912F0310922C0310922D0310920A
:105D60002E0310922F038F2D8E2909F448C08091A5
:105D70002803909129030E9443099C0190912403D8
:105D8000992309F4D6C323333105C8F19F3F19F095
:105D90009F5F90932403FF2059F00E940C0B9FEF0C
:105DA0001F140CF491E0899F802D112480932C0303
:105DB000EE2059F00E940C0B9FEF1E140CF491E0A2
:105DC000899F802D112480932D0330912C03332340
:105DD000B1F020912D03222391F045EB3403C00153
:105DE0001124992309F4B4C190932C0345EB2403A7
:105DF00090011124332309F4AFC130932D03812F77
:105E0000802B09F448C080912603909127030E94BB
:105E100043099C0190912303992309F485C32536F6
:105E20003105C8F19F3F19F09F5F90932303112321
:105E300059F00E94EA0A9FEF11160CF491E0899F35
:105E4000802D112480932E03002359F00E94EA0A2A
:105E50009FEF10160CF491E0899F802D1124809300
:105E60002F0330912E033323B1F020912F032223EF
:105E700091F045EB3403C0011124992309F470C15A
:105E800090932E0345EB240390011124332309F44E
:105E90006BC130932F0380912C0390912D03892B9C
:105EA00090912E03892B90912F03892B11F00E9442
:105EB000560A86E0FE013196AAE2B3E001900D9207
:105EC0008A95E1F70E9473290E94A9139091040317
:105ED000891721F00E94A9138093040380912E0456
:105EE000843009F445C10E948513882309F479CED2
:105EF00040911F0350912003609121037091220370
:105F00002FB7F89480911A0490911B04A0911C045F
:105F1000B0911D042FBF841B950BA60BB70B0B97DD
:105F2000A105B10508F45DCE1BA61CA688E08DA7CF
:105F300090911A039A3008F052CE89831A8282E037
:105F40008B831092450180935C0110E000E030E00B
:105F500020E043E050E0BE016F5F7F4F84E00E948D
:105F60001726882309F43BCE30E020E050E040E0E3
:105F700070E060E085E00E941726882309F42FCEA8
:105F800030E020E041E050E0BE01635D7F4F86E0FD
:105F90000E941726882309F422CE02E010E09E0119
:105FA000255D3F4F50E040E070E060E087E00E94F8
:105FB0001726882309F413CE0E94520960931F0309
:105FC0007093200380932103909322038BA590E08C
:105FD00090931E0380931D038CA590E090931C0367
:105FE00080931B03FCCD80912E04843019F10E9414
:105FF0007329109219040FB6F894A8956092600066
:106000000FBE5092600083B7817F846083BF83B7E7
:10601000816083BF7894889583B78E7F83BF0FB6E6
:10602000F894A89580916000886180936000109238
:1060300060000FBE80912D04882351F00E94A92793
:10604000E0E1F3E08191811150C2AE16BF06D1F7B5
:1060500080912E04853009F4C6CF0E94D4180E9486
:10606000A913C6CD9394FF0C27E09212D9CD0F5FF0
:106070001F4F0A30110509F0C9CD8FEF8EA38FA3F2
:1060800018A60E945E098160782F9AA789A74EA161
:106090005FA168A58AA50E948725E3CD863059F4C3
:1060A000F0E0EC5BFD4FE4910E2F10E0B6E0EB2E3C
:1060B000B3E1FB2EF0CD893061F4E695F0E0EF5BC3
:1060C000FD4FE4910E2F10E0A7E5EA2EA2E1FA2E93
:1060D000E2CD8F3061F4E695F0E0E25CFD4FE491B3
:1060E0000E2F10E0FEEBEF2EF1E1FF2ED4CD853127
:1060F00059F4F0E0E55CFD4FE4910E2F10E0E7E38A
:10610000EE2EE1E1FE2EC7CD08E210E057EAE52EC3
:1061100050E1F52E883109F4BECD833249F4E9E32C
:10612000F2E0059114917DEAE72E72E1F72EB3CDEE
:1061300004EF11E06AE6E62E60E1F62E843209F4FF
:10614000AACD00ED17E049EAE42E49E0F42EA3CDF4
:1061500081E080932C034ACE81E080932D034FCEC3
:1061600081E080932E038ECE81E080932F0393CE27
:1061700083E08093E9008091E80082FFB4CE8091B3
:10618000E80090E085FF0BC00E94C30730E2E32ED9
:10619000F12C8E010F5F1F4F8823E1F091E0809179
:1061A000E8008B778093E800992309F49CCEE9817D
