:100000000C94A1060C94482E0C94E8060C94E80677
:100010000C94E8060C94E8060C94E8060C94E806A8
:100020000C94E8060C94E8060C94F7260C94B3267E
:100030000C94F4270C94E8060C94E8060C94E8065B
:100040000C94E8060C94E8060C94E8060C94E80678
:100050000C94E8060C94D0270C94E8060C94E8065F
:100060000C94E8060C94E8060C94E8060C94E80658
:100070000C94E8060C94E8060C94E8060C94E80648
:100080000C94E8060C94E8060C94E8060C94E80638
:100090000C94E8060C94E8060C94E8060C94E80628
:1000A0000C94E8060C94E8060C94E8060501090295
:1000B000A10185020901A1000509190129081500FE
:1000C0002501950875018102050109300931158165
:1000D000257F95027508810609381581257F9501D0
:1000E00075088106050C0A38021581257F95017572
:1000F000088106C0C005010980A101850319012AF4
:10010000B700150126B700950175108100C0050CD8
:100110000901A101850419012AA002150126A002E6
:10012000950175108100C00660FF0961A101096297
:10013000150026FF00952075088102096315002629
:10014000FF00952075089102C005010906A101056F
:100150000719E029E7150025019508750181029529
:1001600001750881010507190029FF150026FF0008
:100170009506750881000508190129059505750181
:100180009102950175039101C0000000000000007C
:10019000000000000000000000000000000000005F
:1001A000000000000000000000000000007E0F00C2
:1001B000D4FFFFFFC700000078000000000000002F
:1001C000002A2B28000000000000000000000000B2
:1001D0000000000029000000002C1E3420212224F1
:1001E000342627252E362D3738271E1F202122237F
:1001F0002425263333362E37381F04050607080911
:100200000A0B0C0D0E0F10111213141516171819D6
:100210001A1B1C1D2F3130232D3504050607080934
:100220000A0B0C0D0E0F10111213141516171819B6
:100230001A1B1C1D2F3130354C0001010101010139
:10024000010101020202020202020202030303038D
:10025000030303030404040404040405050505055D
:10026000060606060607070707070808080809091B
:1002700009090A0A0A0B0B0B0C0C0C0D0D0D0E0EC6
:100280000E0F0F0F10101111111212131314141559
:100290001516161717181819191A1A1B1B1C1D1DCD
:1002A0001E1E1F2020212222232424252626272823
:1002B00029292A2B2C2D2D2E2F3031323233343553
:1002C000363738393A3B3C3D3E3F40414243444556
:1002D000464748494A4C4D4E4F5051535455565835
:1002E000595A5B5D5E5F616264656668696B6C6DDF
:1002F0006F7072737577787A7B7D7E808283858755
:10030000888A8C8E8F91939596989A9C9EA0A2A392
:10031000A5A7A9ABADAFB1B3B5B7BABCBEC0C2C497
:10032000C6C9CBCDCFD1D4D6D8DBDDDFE2E4E7E957
:10033000EBEEF0F3F5F8FAFDFF0001020304050609
:100340000708090A0B17161514131211100F0E0DBA
:100350000C29001E001F002000210022002F003564
:100360000014001A000800150017002D002B0004CF
:10037000001600070009000A004C00E1001D001BE8
:10038000000600190005002C00E000E300E2003543
:1003900004815F2C004C0046002700260025002425
:1003A00000230030003100130012000C0018001C64
:1003B000002E00340033000F000E000D000B002A49
:1003C00000E5003800370036001000110028004F0B
:1003D00000520051005000825F28002A0044003A79
:1003E000003B003C003D003E002F0235021E021F74
:1003F000022002210222022D022B001E001F0020DB
:1004000000210022004C00E10023002400250026EA
:100410000027002C00E000E300E2003504815F2C9F
:10042000004C00450043004200410040003F0030C6
:10043000023102270226022502240223022E023460
:100440000233020F000E000D000B002A00E50038F9
:1004500002370236021000110028004D004B004EFA
:10046000004A00825F28002A0044003A003B003C1A
:10047000003D003E002F0235021E021F0220022115
:100480000222022D022B001E001F0020002100224C
:10049000004C00E100230024002500260027002C4A
:1004A00000E000E300E2003504815F2C004C0045D1
:1004B0000043004200410040003F0030023102276B
:1004C0000226022502240223022E02340233020FE6
:1004D000000E000D000B002A00E50038023702363E
:1004E00002100011002800845F855F4E004A0082E0
:1004F0005F28002A0000000000000000000000004B
:1005000000000000000000000000000000000000EB
:1005100000000000000000000000000000000000DB
:1005200000000000000000000000000000000000CB
:1005300000000000000000000000000000000000BB
:100C200000005CC25CC35CC65CC55C0100010001E5
:100C300000BF5CC15CBE5CBD5C0100010001000145
:100C4000000100010001000100010001000100019C
:100C5000000100010001000100010001000100018C
:100C6000000100010001000100C95CCA5CC75CC84A
:100C70005C01000100010001000100010001000110
:100C8000000100010001000100010001000100015C
:100C90000001000100010001000100010009025BE8
:100CA00000030100A0FA090400000103010100098A
:100CB00021110100012240000705810308000A09F3
:100CC0000401000203000000092111010001222299
:100CD0000007058203200001070503032000010926
:100CE0000402000103000000092111010001227B20
:100CF000000705840320000A12010002000000081A
:100D0000EEFE606000010102000118034500720060
:100D100067006F00440061007300680056003900EE
:100D200039000000180354006F007500630068006C
:100D3000730065006E0073006F0072000000040312
:100D4000090411241FBECFEFDAE0DEBFCDBF04B629
:100D500003FE27C08091740390917503A0917603E0
:100D6000B09177038730904BA740B04BD1F41092ED
:100D7000740310927503109276031092770314BED9
:100D800084B7877F84BF0FB6F894A89580916000E0
:100D9000886180936000109260000FBEE0E0F8E38D
:100DA000099511E0A0E0B1E0E0EEF2E602C00590A6
:100DB0000D92A23DB107D9F723E0A2EDB1E001C049
:100DC0001D92A437B207E1F70E941B280C942F3123
:100DD0000C940000FC01AC014B5F5F4F8FEF91E37F
:100DE0002191822728E030E087FF09C0880F8927FA
:100DF00021503109C9F7E417F50791F70895880FD5
:100E0000F7CFE8EDF0E080818E7F80831092E200E2
:100E10001092DA001092E100A0EEB0E08C918160B7
:100E20008C9380818F77808319BCA7EDB0E08C9183
:100E30008E7F8C9380818F7E8083109259030895DA
:100E40002091E4003091E50095E6A9012091EC00A5
:100E5000822F817020FF06C08091E80080FF06C0CD
:100E600080E008952091E80022FD1AC08091660379
:100E7000882389F0853089F08091EB0085FD0FC0D3
:100E80002091E4003091E50042175307F9F29150A8
:100E9000E1F684E0089582E0089583E0089581E01A
:100EA0000895EF92FF920F931F93CF937C018B01D4
:100EB0000E942007C82F811117C08091E80085FD8E
:100EC0000BC08091E8008E778093E8000E94200795
:100ED000882399F3C82F08C0F70181917F0180937F
:100EE000F1000150110949F78C2FCF911F910F91FB
:100EF000FF90EF9008958091680387FF13C0809161
:100F0000E80082FF06C08091E8008B778093E800BC
:100F100004C0809166038111F2CF08958091660329
:100F20008823D9F38091E80080FFF8CF8091E80012
:100F30008E77ECCF982F9093E900242F762F50E0F6
:100F4000891731F07091EC002091ED005091F00084
:100F500021FD07C09F5F973071F78093E90081E022
:100F600008953091EB003E7F3093EB003091ED001F
:100F70003D7F3093ED003091EB0031603093EB001A
:100F80007093EC002093ED005093F0002091EE0060
:100F900027FDE0CF80E00895CF92DF92EF92FF929D
:100FA0000F931F93CF93DF93C8EDD0E088818F7E9E
:100FB0008883E7EDF0E080818160808384E082BFF8
:100FC00081E08093590388818E7F888302EE10E050
:100FD000F80110821092DA0081EEC82ED12CF601B1
:100FE000108288818F778883888180688883888150
:100FF0008F7D888319BC109266031092670310924C
:1010000065031092640390EEE92EF12CF7018081C4
:101010008B7F808388818160888342E060E080E00C
:101020000E949A07F60180818E7F8083F80180817B
:1010300081608083808188608083F70180818E7FDA
:101040008083888180618883DF91CF911F910F9188
:10105000FF90EF90DF90CF900895FC0180916E0398
:1010600090916F0386179707A0F06115710529F419
:101070009091E8009E779093E80090E061157105EB
:1010800051F4911108C08091E80082FF34C080E0E3
:101090000895BC01F2CF809166038823C1F18530A9
:1010A000C1F18091E80083FD30C08091E80082FDAD
:1010B000EACF8091E80080FFE1CF8091F30020919A
:1010C000F200382F6115710519F02830310558F0FC
:1010D00091E02830310509F090E02091E8002E776A
:1010E0002093E800CBCF81918093F100615071098A
:1010F0002F5F3F4FE7CF80916603882341F0853013
:1011000041F08091E80083FFBECF81E0089582E046
:10111000089583E00895089580915B03089587E71B
:1011200097E7909301088093000888E19AE00FB652
:10113000F894A895809360000FBE90936000FFCF55
:101140009C014FB7F8948091520390915303A09162
:101150005403B09155034FBF821B930B08952FB7D3
:10116000F8946091520370915303809154039091CD
:1011700055032FBF08952FB7F89480915203909193
:101180005303A0915403B09155032FBF08952091AC
:101190004F03309150032817390771F09093500393
:1011A00080934F03E0914D03F0914E03309721F06F
:1011B0000084F185E02D0994089520914B0330912E
:1011C0004C032817390771F090934C0380934B031D
:1011D000E0914D03F0914E03309721F00680F781A6
:1011E000E02D09940895E0914D03F0914E0330975E
:1011F00039F022E0DC012C930480F581E02D099484
:101200000895FA01811101C0FB0109948091460300
:10121000982F9E7F39F4809146038170826080937D
:10122000460308958430B8F708950E94BB089C01D6
:101230009091F7028091F802982B21F03093F402FC
:101240002093F3029091F9028091FA02982B21F0F9
:101250003093F2022093F10285EF92E00C94F308B0
:101260004091F702803F59F48091F80287FF0DC04A
:101270001092F80241110BC01092EF0208C0813F9A
:1012800081F48091F80218169CF3442381F0809138
:10129000F9029091FA02892B09F05AC01092EE02DD
:1012A0000895823F49F447FFF0CF1092F7028091F2
:1012B000F8028111ECCFE0CF833F19F41416ACF3A0
:1012C000E4CF9091F902893F29F41916F4F61092AF
:1012D000F902DBCF8A3F19F497FFD7CFF8CF90916F
:1012E000FA028B3F29F497FFD0CF1092FA02CDCFAC
:1012F0008C3F19F41916CCF3C8CF9CE0980F9530A9
:1013000090F4845F990B21E030E0B90102C0660FD0
:10131000771F8A95E2F7CB0180959091F602892399
:101320008093F602B2CF8D3F31F48091F0028E7F30
:101330008093F002AACF8E3F21F48091F0028D7F3E
:10134000F7CF8F3F09F0A1CF8091F0028B7FF0CFD4
:1013500008958091F00280FD16C081FD16C082FDC7
:1013600016C08091EE028823A1F0883280F428E034
:10137000829FC001112468E270E00E94EA2F862F4C
:10138000672B39F0089582E0089584E0089588E09D
:10139000089581E008958091F00280FD14C081FDE0
:1013A00014C082FD16C08091EF02882381F0843141
:1013B00080F422E3829FC001112464E170E00E9466
:1013C000EA2F862F08958CE0089589E1089585E03D
:1013D000089582E30895803F31F40E94CB098195FE
:1013E0008093F8020895813F19F40E94CB09F8CF49
:1013F000823F31F40E94CB0981958093F7020895D2
:10140000833F19F40E94CB09F8CF893F29F40E9449
:10141000A9098093F90208958A3F21F40E94A9093D
:101420008195F7CF8B3F31F40E94A9098195809374
:10143000FA0208958C3F19F40E94A909F8CF9CE0A4
:10144000980F953070F4845F990B21E030E001C073
:10145000220F8A95EAF78091F602822B8093F6029A
:1014600008958D3F31F48091F00281608093F00205
:1014700008958E3F21F48091F0028260F7CF8F3F74
:10148000B9F78091F0028460F1CF8091E802F90110
:1014900080838091E6028183089580E008957894A6
:1014A0000895E0916402E930A4F48AE0E802F001D2
:1014B0001124EF5EFE4F0084F185E02D309749F056
:1014C00027E832E04091660267E672E080916502AB
:1014D00009940895E2E5F2E08389809345018489C7
:1014E00080935C010895F894E82FE295EF70F0E0A6
:1014F00031A1282F2F7081E090E001C0880F2A953C
:10150000EAF7982F9095932391A392A1892B82A318
:101510000C944F0A9091BC0292FF06C0282F2871AC
:101520002830F9F4877F846093FF06C0282F287144
:101530002831F1F4877E84612091BD0220FF06C02E
:10154000382F38713830D9F4877F816021FF06C089
:10155000282F28712831D1F4877E816194FD877E00
:101560000895282F24712430F9F68B7F8860DCCF12
:10157000282F2471243101F78B7E8861DDCF382F2D
:101580003171313019F78E7F8860E0CF282F2171BB
:10159000213121F78E7E8861E1CFCF93DF93EC017B
:1015A00082389105A9F1D8F58133910509F496C0E7
:1015B00048F58932910509F48AC08A9709F495C0E3
:1015C000C11521E5D20708F0BCC0C11530E5D3072D
:1015D00008F014C1C83ED10508F09CC0C03ED1053A
:1015E00060F5C83AD10508F087C0C53AD10508F0C2
:1015F000FDC0C130D10509F12097F9F0C430D10503
:10160000E0F440C08533910509F45AC0C997C1F68A
:101610008091BC02837089F0C0EED0E00EC0833EA2
:10162000910599F170F4803E910501F1823E91059A
:1016300039F68091BC0282FD21C0CE01DF91CF91AD
:101640000895863E910561F1873E910571F1843ED2
:10165000910509F0B5CF8091BD0281FFEECF809159
:10166000BC02C7EED0E084FD0DC0E7CF8091BC0284
:1016700080FD12C19091BD0290FFDFCFC3EED0E09C
:1016800084FFDBCFD0E0C0E0D8CF8091BC0282FDE8
:1016900006C19091BD0290FDBFCF84FFCECFF2CFA7
:1016A0008091BC0283FDDDCFC8CF8091BC0283FD59
:1016B000F9C09091BD0291FFF0CFC4EED0E0BDCF54
:1016C0008091BC0285FFB9CFC9E2D0E0B6CF80914E
:1016D000BC0285FFB2CFC5E3D0E0AFCF8091BC02A2
:1016E00086FFABCFCAE2D0E0A8CF8091BC0286FFD4
:1016F000A4CFC1E3D0E0A1CFCF3BD10518F6C85AA3
:10170000D0E0CC0FDD1FCC58DE4F0990D881C02D22
:10171000D46493CFC11540E2D40758F4C11581E0D9
:10172000D80708F08ACFC03FD10508F4ABCFD06509
:1017300084CFC11590E4D90708F4A4CFDF70D06A34
:101740007CCFC11525E5D20700F5C11534E5D307D7
:1017500008F08AC0C11543E5D40708F071C0C1156F
:1017600082E5D80708F467C0CE018370992721E08D
:1017700030E002C0220F331F8A95E2F7C695C69566
:1017800080E2C89FE001112452C0C11599E5D90734
:10179000A8F4C11528E5D20708F06BC0C11536E5DD
:1017A000D30708F06FCF8C2F0E948A0AC82FD0E091
:1017B000DC2FCC27CC27DF71D0623FCFC1154AE5A3
:1017C000D40708F45BC0CE0190568115904208F012
:1017D00059CF8D2F8F710E948A0A90E0982F882709
:1017E00088279F719C012C2BE901E6CFC55AD0E0D8
:1017F000CF58DE4FC881D0E0D0641FCFCE01E4E0E7
:1018000096958795EA95E1F783702C2F2695269576
:10181000237040E2249F90011124382B8C2F837079
:10182000C1E0D0E002C0CC0FDD1F8A95E2F7C22BE9
:10183000D32BDC6802CFDC2FCC27C16FD06AFDCE62
:10184000CE018370992721E030E002C0220F331FC0
:101850008A95E2F7C695C69590E2C99FE0011124EA
:10186000C22BD32BDA68E9CEDC2FCC27C46FD06A29
:10187000E4CEDC2FCC27C06FD06ADFCE8C2F8F70E8
:101880000E948A0A34E0D695C7953A95E1F7CF7061
:101890009C2FEC01D069D1CEC9E3D0E0CECEC2EE10
:1018A000D0E0CBCEC6EED0E0C8CE8091450281110B
:1018B0001092450208958095909144029823909348
:1018C000440208958091440290914302892B9091A3
:1018D0004202892B8093D40190914502992391F083
:1018E000892B8093D40120E086ED91E0FC013191B9
:1018F000CF0131112F5FF1E08C3D9F07B9F7211126
:101900000E94550CE0914D03F0914E03309731F059
:101910000280F381E02D84ED91E009940895E6EDD5
:10192000F1E09191891303C0DF0111971C9291E0BE
:10193000EC3DF907B1F70895A6EDB1E0EFEF90E0C7
:101940002D91821751F0EF3F19F4211101C0E92FB9
:101950009F5F9630A9F7EF3F09F408950E2E000C13
:10196000FF0BEC52FE4F82830895809140029091CC
:101970000F02981301C008958F5F8770FACF27E098
:10198000929F800D1124982F977086958695869545
:1019900023E0829FF0011124E251FE4F50E040E02D
:1019A00080E0219130E0092E02C0369527950A94F7
:1019B000E2F721703327042E01C0220F0A94EAF7C0
:1019C000822B4F5F5F4F4330510559F7089527E051
:1019D000929F800D1124982F977041E001C0440F11
:1019E0009A95EAF786958695869593E0899FF0010A
:1019F0001124E251FE4F90E080E070E05191DF0150
:101A000011979B01082E02C0369527950A94E2F79C
:101A1000217021952527242325272C930196833097
:101A2000910561F7089590E080E00E94DD0890E064
:101A300080E00E94C70810924302109242020E9466
:101A4000620C86E0E5EFF2E0DF011D928A95E9F78E
:101A50001092EF021092EE021092F0020C9415090F
:101A6000809373030C94130D9091730321E030E085
:101A700001C0220F8A95EAF7892F8670863021F4FB
:101A8000892F822B0C94300D822F80958923FACFD9
:101A900021E030E001C0220F8A95EAF7209580917D
:101AA000730382230C94300D909141028095892319
:101AB00080934102282F277091F4282F082E000CC4
:101AC000330B9217130659F09091BD0292FD07C097
:101AD0008595859585950E94480D1092410208953F
:101AE00021E030E001C0220F8A95EAF7809173036C
:101AF000822B0C94300D809346020C94130D882396
:101B000021F00E945B0C0C94620C0895882339F03C
:101B100090914402982B909344020C94620C089587
:101B2000CF93DF93C091E401C80F41F41092E40118
:101B300060E070E0CB01DF91CF9108958C2F64E1DC
:101B40000E94C82FD92F682F880F770B880B990B0D
:101B50000E94B530D093E401CD5EC73260F310929D
:101B6000E501E9CFCF93DF93C091E501C80F41F4C0
:101B70001092E50160E070E0CB01DF91CF91089514
:101B80008C2F6AE00E94C82FD92F682F880F770BFF
:101B9000880B990B0E94B530D093E501C75FC33124
:101BA00060F31092E401E9CF8093560370935803D9
:101BB00060935703809166038430F9F48093E900C1
:101BC0008FEF9091E800815095FD06C095ED9A95B4
:101BD000F1F700008111F5CF8091E80085FF0DC07D
:101BE00050E040E063E070E086E593E00E9451073A
:101BF0008091E8008E778093E8000895BC0184E02E
:101C00000C94D40DBC0183E00C94D40D9C0184E0B1
:101C10008093E9009FEF8091E800915085FD06C018
:101C200085ED8A95F1F700009111F5CF8091E800DC
:101C300085FF0CC050E040E066E070E0C9010E9402
:101C400051078091E8008E778093E8000895CF9344
:101C5000DF93EC0181E08093E9008FEF9091E80041
:101C6000815095FD06C095ED9A95F1F70000811120
:101C7000F5CF8091E80085FF14C050E040E068E0B7
:101C800070E0CE010E9451078091E8008E7780932A
:101C9000E80088E0FE01ACE5B3E001900D928A9582
:101CA000E1F7DF91CF910895CF92DF92EF920F93FA
:101CB0001F93CF93DF93CDB7DEB7C854D1090FB6CA
:101CC000F894DEBF0FBECDBF60916C0180914603DA
:101CD00080FF4CC0E9E3F3E09E012F5F3F4F8E0190
:101CE000075B1F4FC901A4914A2F50E0DA01AA0FE8
:101CF000BB1FA40FB51FA250BD4FCD90DD90EC903F
:101D0000D901CD92DD92ED929D013196A017B107D8
:101D100051F720916B0143E0249F800D911D112408
:101D2000539A2BB1277F3BB138605FB7F894FC0121
:101D3000649FE00DF11D1124BF018617970749F537
:101D40005FBFEFE5F4E03197F1F700C00000C85B3A
:101D5000DF4F0FB6F894DEBF0FBECDBFDF91CF913E
:101D60001F910F91EF90DF90CF90089580916D01BA
:101D700090916E0123E0829FF0011124E250FD4F0B
:101D8000891708F0A7CF1182108212828F5F3396D5
:101D9000F7CFDC014D91CD01E8E03BB9000000C078
:101DA00047FF2BB9440F000000C000C000C02BB992
:101DB00000C0EA9591F7C1CFE6E4F3E080818E7F21
:101DC0008083EBEFF2E08281816082832FEF80E7F6
:101DD00092E0215080409040E1F700C000000C9458
:101DE000540E9F92AF92BF92CF92DF92EF92FF92EA
:101DF0000F931F93CF93DF937C015B016A01809166
:101E0000E50201E010E08A3010F40AE010E0C1E0E1
:101E1000D0E0F894B501C701F6010995982E0E940B
:101E20004F0A911004C021960C171D076CF4892DE0
:101E3000DF91CF911F910F91FF90EF90DF90CF90A6
:101E4000BF90AF909F900895CC9F9001CD9F300D93
:101E5000300D112490E080E045E34A95F1F7000051
:101E6000019682179307C1F7D4CF80915102811157
:101E700018C088EC9091E30097FD10C0EFE3FCE9F7
:101E80003197F1F700C000008150A1F782E0809304
:101E900051020E9401071092660303C081E0809303
:101EA000510281E090915102913011F080E008954B
:101EB00008950E94350F882351F0E0914D03F09171
:101EC0004E03309721F00190F081E02D099480E0DD
:101ED0000895882309F452C0823871F40E94590F82
:101EE00081FF4CC089E30E949C0C0E94620C89E334
:101EF0000E948F0C0C94620C833859F40E94590F85
:101F000080FF3CC083E50E949C0C0E94620C83E52C
:101F1000EFCF843859F40E94590F82FF2FC087E415
:101F20000E949C0C0E94620C87E4E2CF9CEF980F09
:101F3000913AF0F290E2980F983050F4877091E067
:101F400001C0990F8A95EAF7892F0E945B0CD2CFC6
:101F50009BE5980F933020F490E080E00C94DD082E
:101F600098E5980F973120F490E080E00C94C70832
:101F7000803F20F00E9430090C9415090895CF93FA
:101F8000C82F882309F490C08238C1F40E94590FE9
:101F900081FD8AC089E30E949C0C0E94620C2FEF95
:101FA00081EE94E0215080409040E1F700C00000B5
:101FB00089E30E948F0CCF910C94620C8338A1F4BA
:101FC0000E94590F80FD70C083E50E949C0C0E9406
:101FD000620C2FEF81EE94E0215080409040E1F7B9
:101FE00000C0000083E5E5CF8438A1F40E94590FBA
:101FF00082FD5AC087E40E949C0C0E94620C2FEF65
:1020000081EE94E0215080409040E1F700C0000054
:1020100087E4CFCF8CEF8C0F813A68F4E6EDF1E0E6
:102020008191C817D9F121E0EC3DF207C9F78C2F57
:102030000E949C0CC0CF80E28C0F883068F4C7707F
:1020400021E030E001C0220FCA95EAF780914402F6
:10205000822B80934402AFCFEBE5EC0FE33040F4EA
:10206000F0E0EF58FE4F808190E0CF910C94DD08B6
:10207000E8E5EC0FE73150F4F0E0EE0FFF1FEC580D
:10208000FE4F80819181CF910C94C708C03F60F0D2
:102090008C2F0E94EB09CF910C9415098C2F0E9474
:1020A0008F0C0E94620CC3CFCF9108951F93CF93E2
:1020B000DF93182FD0E0C0E0893311F4C0E5D0E001
:1020C000812F0E94BF0F209731F4812FDF91CF9194
:1020D0001F910C94690F8FE99FE00197F1F700C001
:1020E00000002197F0CF0F931F93CF93DF93C62F5C
:1020F000D42F022FFC0182818823A1F06093720308
:102100000E94BB089093710380937003C77081E0B5
:1021100001C0880FCA95EAF7DF91CF911F910F9107
:102120000C94860D80917203681335C08091700302
:10213000909171030E94A0088837910560F510E224
:102140001D0FCD17B9F080E28C0F883040F4C770B6
:1021500081E001C0880FCA95EAF70E947F0D183010
:1021600048F481E09D2F977001C0880F9A95EAF797
:102170000E94860D802F0E945610183098F4D77058
:1021800081E001C0880FDA95EAF7DF91CF911F91C6
:102190000F910C947F0DC77081E001C0880FCA9524
:1021A000EAF7F3CFDF91CF911F910F91089598E057
:1021B00020E83AE03A95F1F700C04698382F3223EC
:1021C00051F0599A3AE03A95F1F700C0469A2695AF
:1021D000915079F708955998F5CF28982AE02A95D3
:1021E000F1F700C00E94D71085E38A95F1F700004F
:1021F000599A98E080E02AE02A95F1F700C04698C5
:102200002AE02A95F1F700C0469A29B122FB22273D
:1022100020F9880F822B915071F79AE09A95F1F787
:1022200000C0289A0895CF9380E00E94ED1081317C
:1022300029F090E0C0E08C2FCF91089580EA8A9534
:10224000F1F782E00E94ED1087FFF3CF80EA8A95D4
:10225000F1F783E00E94ED10C82F80EA8A95F1F72C
:1022600084E00E94ED10982FE6CFCF93DF93C7E56F
:10227000D2E060E0CE010E9449302196C11584E091
:10228000D807B9F7DF91CF9108956F927F928F921F
:102290009F92AF92BF92CF92DF92EF92FF920F93F5
:1022A0001F93CF93DF9381E5C82E83E0D82E91EC66
:1022B000E92EF12CE701CC58D10936011BC0F501FC
:1022C00085909490692DC8010E944930682DC801FD
:1022D00001960E94493082E0A80EB11C0E5F1F4F8C
:1022E000C017D10761F78EE0680E711C2E96CE15CF
:1022F000DF0529F08E010E5011095301E0CF7E0158
:102300008CE8E80EF11C8CE8C80ED11C81EFE816B1
:1023100082E0F80679F6DF91CF911F910F91FF903F
:10232000EF90DF90CF90BF90AF909F908F907F9075
:102330006F900895CF93C82F6FEF811162E283E20F
:1023400090E00E9449306FEFC11160E184E290E0BB
:102350000E9449306FEFC11165E085E290E0CF91B6
:102360000C94493080E00E949A1160E086E290E08F
:102370000E9449300E9445110E94351181E00C9461
:102380009A11CF93C091BD02C2FB992790F998177B
:1023900099F080FBC2F9C093BD026091BC0284E059
:1023A00090E00E9449306C2F82E290E00E94493018
:1023B00082E0CF910C94540DCF9108950F931F9309
:1023C000CF93DF93C42FD0E0CC0FDD1F2EE0629FB0
:1023D000C00DD11D11243CE8839FC00DD11D1124D7
:1023E000CE0187960E943530082F10E0102F00276D
:1023F000CE0188960E9435309801282BC901DF91C3
:10240000CF911F910F910895462F843038F47A3080
:1024100028F4673018F4672F0C94DE1190E080E008
:102420000895CF92DF92FF920F931F93CF93DF9384
:102430006C010091730380914602082BC7E0D0E045
:1024400010E0FC2EC8010C2E02C0959587950A94C9
:10245000E2F780FD0CC02197A0F7F12C8F2DDF91C2
:10246000CF911F910F91FF90DF90CF900895B6010B
:102470008C2F0E9404120E94CD0A019761F3EECFC7
:10248000CF93DF93EC010E941112BE010E9404124F
:10249000DF91CF910C94CD0AFC01808191810E9443
:1024A0004012292F2F7092959F7092509E3078F491
:1024B000E92FF0E0EF5CFE4C0C94FE2F803F19F00A
:1024C00020F4883E20F481E00895843FE1F380E029
:1024D0000895883EC0F3813FD1F7F5CF822F8695CE
:1024E00086958695089583E290E00E943530823289
:1024F00089F484E290E00E943530803159F485E21D
:1025000090E00E94353091E0853009F090E0892F0D
:102510008170089580E0FCCFCF9384E090E00E942A
:102520003530C82F82E290E00E943530982F8C2FF2
:10253000CF910895CF92DF92EF92FF926B017C01D1
:102540000E940609B701A60188E090E0FF90EF9095
:10255000DF90CF900C945B308F929F92AF92BF929E
:10256000CF92DF92EF92FF920F931F93CF93DF935F
:10257000D82FC62F142F822E0091460300FFD5C0FE
:10258000E02FE695F0E0EF53FE4F80818093FB0251
:10259000802F8E7F8230D1F4E42FF0E0E75CFD4F96
:1025A000611144C02491F22FE22F00FF0FC08091EF
:1025B0006D0190916E0133E0839FD0011124A250F0
:1025C000BD4F891708F4A7C00E94540E809147039D
:1025D0008D1308C0809148038C1304C08091490377
:1025E000811729F08091FD0282608093FD02D093D3
:1025F0004703C093480310934903882009F495C00A
:10260000609146037091470380914803909149037C
:10261000DF91CF911F910F91FF90EF90DF90CF90BE
:10262000BF90AF909F908F900C949A12E62EF12C51
:10263000E4919E2ECE2ED12C26E0D29FC0011124F3
:102640002FEF30E0B9010E94D62F8D2F90E0880F38
:10265000991FF5E5F69FA001F79F500D1124841BEB
:10266000950BB82EBB0CB80EA9014E195F094C9DF5
:10267000C0014D9D900D5C9D900D1124F92FCB9DB7
:10268000A0011124452F5527D901A41BB50BAC9DE2
:10269000A001AD9D500DBC9D500D1124D901AB1969
:1026A000B1095D01AE9CD001AF9CB00DBE9CB00DD8
:1026B0001124AB2FBB272A1B3B0B2C9DD0012D9D3A
:1026C000B00D3C9DB00D11242B2F62307105A1F08F
:1026D00050F46115710509F468CF6130710581F01E
:1026E000292FF52F62CF6430710569F080F06630D4
:1026F000710509F45ACFF4CF2E2FE92FFB2F55CFB8
:102700002E2FE52F52CF292FFE2FEB2F4ECFE92F63
:10271000F92D252F4ACF1196EC9311972C931296F1
:10272000FC9312978F5F13964CCFDF91CF911F913F
:102730000F91FF90EF90DF90CF90BF90AF909F9060
:102740008F900895E6E4F3E0438121E1421B08F411
:1027500040E021E0628181810C94AC12E6E4F3E078
:10276000438121E1420F08F44FEF21E06281818132
:102770000C94AC12E6E4F3E0628121E1621B08F400
:1027800060E021E0438181810C94AC12E6E4F3E047
:10279000628121E1620F08F46FEF21E043818181C2
:1027A0000C94AC12E6E4F3E0818121E04381628184
:1027B00088500C94AC12E6E4F3E0818121E043817F
:1027C0006281885F0C94AC1280914A03882319F0CF
:1027D000815080934A036091460370914703809132
:1027E0004803909149030C949A1280914A038330D4
:1027F00018F48F5F80934A036091460370914703FA
:1028000080914803909149030C949A128091460359
:1028100080FF1EC081708260809346038091FD021C
:1028200081608093FD02662351F0609146037091B0
:10283000470380914803909149030E949A1220E037
:102840004091490360914803809147030C94AC1276
:102850000895809146038695815009F481E061E0F6
:102860000C94061461E081E00C940614E6E4F3E0B5
:1028700083E0808311828FEF828383831482ABEFA6
:10288000B2E012968C911297836012968C936081BD
:102890007181828193810C949A121092CB021092D2
:1028A000CC021092CD021092CE0283E190E00E9401
:1028B0003D306093CB027093CC028093CD02909315
:1028C000CE0280E0663018F081E08093CB02763053
:1028D00078F081E08093CC024091CB025091CC0201
:1028E0006091CD027091CE0283E190E00C945B3058
:1028F0008111F2CF089510924402E6EDF1E086E0F6
:10290000DF011D928A95E9F70C94130D1F93CF9365
:10291000DF93CDB7DEB7AA970FB6F894DEBF0FBE30
:10292000CDBF88E693E02091F100DC012D93CD012D
:10293000B3E080379B07B9F780916903833009F4CE
:1029400072C0B8F4813009F449C0823009F4B3C0D0
:102950008091E80083FF8BC28091680390916903A6
:102960009A3008F084C2E92FF0E0E15CFE4C0C9450
:10297000FE2F8A3009F48EC08B3009F471C0893083
:1029800039F780916803813219F780916C03909137
:102990006D03009711F00297D9F68091E800877FC8
:1029A0008093E8008091E80082FF38C09091F300A6
:1029B0008091F200029731F48091F100813011F0A2
:1029C000863021F48091F10080935B038091E800D0
:1029D0008B778093E8000E947B07BACF80916803D1
:1029E000813A09F0B5CF8091E800877F8093E800B5
:1029F00080916C0390916D03892B61F468E08CE504
:102A000093E070E00E942D088091E8008B7780931E
:102A1000E8009ECF60E090E080E0F3CF8091660315
:102A20008111C0CF95CF80916803813A09F090CF92
:102A300080916C0390916D03892B09F089CF80916F
:102A4000E800877F8093E8008091E80080FFFCCF5A
:102A5000809170018093F1008091E8008E77B9CF6A
:102A600080916803813209F073CF80916C0390915B
:102A70006D03892B09F06CCF8091E800877F8093EC
:102A8000E8000E947B0780916A03809370010E9496
:102A90007B145ECF80916803813209F059CF809119
:102AA000E800877F8093E8000E947B0780916B039A
:102AB00080935A034DCF80916803813A09F048CF43
:102AC0008091E800877F8093E8008091E80080FF94
:102AD000FCCF80915A03BECF803899F0823809F03C
:102AE000C6C180916C038F70873008F0C0C180939D
:102AF000E9008091EB0085FB882780F91092E900BE
:102B000006C0809164039091650391118260909159
:102B1000E800977F9093E8008093F1001092F10015
:102B20008091E8008E779FC1882309F48DC182309F
:102B300009F09DC180916A03811190C180916C035D
:102B40008F702FEF280F263008F091C18093E90095
:102B50002091EB0020FF82C1933031F48091EB0093
:102B600080628093EB007AC19091EB00906190932A
:102B7000EB0021E030E001C0220F8A95EAF72093B4
:102B8000EA001092EA008091EB008860EACF8111A0
:102B90006EC110916A031F778091E3008078812BCA
:102BA0008093E3008091E800877F8093E8000E9493
:102BB0007B078091E80080FFFCCF8091E300806874
:102BC0008093E30082E0111183E0809366034FC19C
:102BD0008058823008F04BC120916A0330916B031A
:102BE0002C3DE3E03E07A1F583E08A838AE28983F6
:102BF0004FB7F894DE01139620E03EE051E2E32F58
:102C0000F0E050935700E49120FF03C0E295EF708D
:102C10003F5FEF708E2F90E0EA30C0F0C7968D9343
:102C20009D932F5F243159F74FBF8091E800877F34
:102C30008093E8006AE270E0CE0101960E942D08C0
:102C40008091E8008B778093E80011C1C096E7CFB0
:102C500080916C0390916D03432F552743305105AC
:102C600009F44AC078F54130510509F47AC08BE582
:102C700090E0EDE9FCE04230510509F0F8C0209108
:102C8000E800277F2093E80020916E0330916F03C6
:102C90008217930708F49C0140E02115310509F0E3
:102CA00065C0411163C08091E80082FDC9CF809169
:102CB0006603882329F2853019F28091E80083FFAA
:102CC000F2CFBECF4132510509F43CC0423251052A
:102CD00009F0CDC08330910508F0C9C0FC01EE0FAA
:102CE000FF1FEA53FE4F0190F081E02D8D539E4F60
:102CF000DC018C9190E01AC0332721303105D1F0EE
:102D00002115310561F02230310509F0B0C0EAE04B
:102D1000FDE0E4918E2F90E0EAE0FDE007C0EEE3F5
:102D2000FDE0E4918E2F90E0EEE3FDE0009709F4E2
:102D30009EC0A5CFE4E2FDE0E4918E2F90E0E4E2B6
:102D4000FDE0F4CF8330910508F091C0880F991F02
:102D5000FC01E453FE4F0190F081E02D89E090E00A
:102D60008ECF82E190E0E8EFFCE089CF80916603AE
:102D7000882309F465CF853009F462CF8091E8009B
:102D800083FD5ECF8091E80082FD8DCF8091E800C9
:102D900080FF83CF9091F3008091F20021153105DF
:102DA00019F08830910550F041E0089709F040E0B3
:102DB0008091E8008E778093E8006FCF4491409334
:102DC000F1003196215031090196E8CF803809F0A1
:102DD0004EC08091E800877F8093E8008091670370
:102DE0008093F1009DCE811142C010916A03123090
:102DF000F0F58091E800877F8093E80010936703E7
:102E00000E947B07112311F084E005C08091E3004C
:102E100087FDFACF81E08093660342E061EC81E0B8
:102E20000E949A0742E261EC84E00E949A0742E223
:102E300061EC82E00E949A0742E260EC83E00E942B
:102E40009A078091660313C080916A03813079F4F8
:102E500081E0933009F080E0809365031092E900EF
:102E60008091E800877F8093E8000E947B07809133
:102E7000E80083FF0AC08091E800877F8093E80024
:102E80008091EB0080628093EB00AA960FB6F894D5
:102E9000DEBF0FBECDBFDF91CF911F91089569EEC8
:102EA0007EEF90E080E00E94673060E082E090E09A
:102EB0000E94493060E083E090E00E944930109227
:102EC000460260E084E090E00E94493060E082E2E7
:102ED00090E00E94493060E085E090E00E94493037
:102EE00060E086E090E00E9449306FEF87E090E07C
:102EF0000E94493040E050E0BA0188E090E00E9432
:102F00005B3060E08DE090E00E94493040E050E0AE
:102F1000BA0188E190E00E945B3060E087E190E0D8
:102F20000E94493040E050E0BA018CE190E00E94FC
:102F30005B3070E060E080E290E00E94673040E04B
:102F400050E0BA0188E190E00E945B3080E00E948E
:102F50009A110E94B21140E050E0BA018FE090E077
:102F60000E945B300C944D143F924F925F926F928F
:102F70007F928F929F92AF92BF92CF92DF92EF9209
:102F8000FF920F931F93CF93DF93CDB7DEB7629776
:102F90000FB6F894DEBF0FBECDBF8C01FC0183815C
:102FA0009481892B31F08081918189238F3F09F0B1
:102FB00026C662960FB6F894DEBF0FBECDBFDF9176
:102FC000CF911F910F91FF90EF90DF90CF90BF9026
:102FD000AF909F908F907F906F905F904F903F90B9
:102FE00008950E941112F82E682F89819A810E94FB
:102FF000E70C69817A818F2D0E9404127C01F8010F
:103000008281882309F4EEC5970122513F45203182
:10301000310508F0D0C58FEF93E00E943530FEEE09
:10302000EF0E77E5872E72E0972E8823A9F1809125
:103030004102877009F4BDCFF8018281882309F429
:10304000B8CF8091BD0282FDB4CF82E062960FB608
:10305000F894DEBF0FBECDBFDF91CF911F910F91CE
:10306000FF90EF90DF90CF90BF90AF909F908F90A8
:103070007F906F905F904F903F900C94540D81140F
:1030800024E09206A1F2C4010E943530811101C0F2
:10309000EA943FEF831A930AE110F1CF1C821B825E
:1030A000442443946AE0362E74018FEFE81AF80A3C
:1030B000C4010E94353089831A82882309F4B7CF6E
:1030C0009FEF980F933000F58A83498292E0890E32
:1030D000911CC7010E9435308B83882309F4A7CF48
:1030E000FE0131967F01F70120812223E9F2213090
:1030F00009F049C091818281913041F4F2E0EF0EF4
:10310000F11C0E94561009C04701EACF923049F4E1
:1031100022E0E20EF11C0E94BF0F3FEFE31AF30A18
:10312000E2CF933031F432E0E30EF11C0E94690FDC
:10313000F4CF943021F08FEFE81AF80AEECF92E046
:10314000E90EF11C30E020E0B7016F5F7F4FF7011F
:1031500041818053990B8A30910550F021503109FB
:10316000E0F28FE99FE00197F1F700C00000F6CF91
:10317000329EF001339EF00D11249C012E0F3F1F53
:10318000842F7B01E1CFE22FF0E0E754FE4F549013
:10319000822F86958695869590E0FC01E755FE4F37
:1031A00064902770712C022E02C0759467940A9463
:1031B000E2F7E1E06E227724FC01E756FE4FA4908F
:1031C000B12C022E02C0B594A7940A94E2F7F1E064
:1031D000AF22BB24FC01E757FE4FC490D12C02C0A4
:1031E000D594C7942A95E2F721E0C222DD24611428
:1031F000710419F081EE0E94BF0FA114B10419F0FF
:1032000086EE0E94BF0F852D0E945610AB2819F044
:1032100086EE0E94690F672819F081EE0E94690FFF
:10322000CD2809F47ACF8CE26CCF81E00E94700D3A
:1032300083E00E94340DFBCE81E00E94480DF8CF60
:1032400082E0F4CF882309F4F2CE61E083E090E0DD
:103250000E94493081E00E947B0DE9CE882321F055
:1032600081E00E94700D03C081E00E94480D80E162
:10327000E0CF882311F082E0F4CF82E0F6CF8823FC
:1032800021F080E10E94700DD2CE80E10E94480DB5
:10329000CECE882309F4CBCE8091CB0290E001966C
:1032A00066E070E00E94D62F8093CB024091CB0263
:1032B0005091CC026091CD027091CE028FE090E0EF
:1032C0000E945B30E091CB02F0E0EE0FFF1FEB5469
:1032D000FE4F808180930401809303014091CB02D3
:1032E0005091CC026091CD027091CE0283E190E0CA
:1032F0000E945B309CCE882309F499CE8091CC0249
:1033000090E0019666E070E00E94D62F8093CC0298
:103310004091CB025091CC026091CD027091CE02CF
:103320008FE090E00E945B30E091CC02F0E0EE0F85
:10333000FF1FEB54FE4F80818093020180930101B7
:10334000CDCF882331F08091E60191E089278093E9
:10335000E6011092E5011092E40169CE8823C9F3D9
:103360008091E30191E089278093E301F2CF93EF0D
:10337000E9169CE5F90609F480C0C0F4F8EDEF16F3
:10338000FCE5FF0609F475C029EDE2162CE5F2060E
:1033900009F47FC037EDE3163CE5F306B9F426E205
:1033A00041EE61EEC8010E94731041CE95EFE9161F
:1033B0009CE5F90609F469C008F463C027E245EE0C
:1033C00066EEF6EFEF16FCE5FF0661F3882309F4DD
:1033D00027C41092720323E0E2162DE5F20608F0EE
:1033E0005BC03AEFE3163CE5F30630F4C7018250C8
:1033F0009C45449708F056C00E948C129093BD02E1
:103400008093BC0290E1E9169CE5F90609F431C10C
:1034100008F0A3C0F8E0EF16FCE5FF0609F41BC1B5
:1034200008F06CC034E0E3163CE5F30609F405C18E
:1034300008F04EC092E0E9169CE5F90609F4F7C0E1
:103440008091BC028260E3E0EE16ECE5FE0609F432
:10345000F1C06091BC02F090BD0284E090E00E9457
:1034600049306F2D82E290E00E9449300E947B1427
:10347000DECD27E245EE65EE95CF26E241EE60EE29
:1034800091CF27E245EE64EE8DCF26E241EE62EE6B
:1034900089CF28E241E0EFCF81E6E8168DE5F80616
:1034A00009F4AACFF6E1EF16FCE5FF0609F045C4E2
:1034B000809144028A7A91E009F490E09093E701C8
:1034C0008111FCC089E20E949C0C0E94620CAFCD6D
:1034D0008091BC028061F6E0EF16FCE5FF0609F47E
:1034E000A9C08091BC02886027E0E2162CE5F206B4
:1034F00008F4A0C08091BC0280629CC08091BC0294
:103500008D7F3CE0E3163CE5F30609F493C078F4C4
:103510008091BC028C609AE0E9169CE5F90609F4FA
:1035200089C008F49CC08091BC028E7F83C08091CA
:10353000BC02877FFEE0EF16FCE5FF0609F47AC0C7
:103540008091BC028B7F2FE0E2162CE5F20608F496
:1035500071C08091BC028F7E6DC03CEFE3163CE5EC
:10356000F30609F482C0A0F594E1E9169CE5F9069A
:1035700009F493C098F4F2E1EF16FCE5FF0609F4B4
:103580007CC08091BC028F7B23E1E2162CE5F20621
:1035900008F450C08091BC02837F4CC03AEFE31620
:1035A0003CE5F30609F44DC008F051C095E1E91679
:1035B0009CE5F90609F04DCF8091BC0282FB99276A
:1035C00090F921E0922790FB82F990FB83F932C0B9
:1035D000E114EDE5FE0609F456C0A0F48091BD02A9
:1035E00083602EEFE2162CE5F20671F18091BD02A8
:1035F0008D7F3FEFE3163CE5F30630F18091BD028D
:103600008C7F22C082E0E8168DE5F80609F454C0EC
:1036100008F44CC0E1E6EE16EDE5FE0609F019CF20
:103620009091BC02892F8F7E94FF806103C08091AE
:10363000BC0281608093BC020CCF8091BC0284608C
:10364000F9CF8091BD0281608093BD0202CF80914D
:10365000BD028260F9CF8091BC028064EBCF0E94F2
:103660007B148091BC028068E5CF8091BD028E7F83
:10367000EBCF8091BC028F7DDDCF0E947B148091C7
:10368000BC028F77D7CF8091BD02982F9095917013
:103690008E7F892B90FB81F9D7CF0E947B1490916C
:1036A000BC02892F97FB87F98058C4CF61E08EE078
:1036B00090E00E944930CDCE60E0F9CF85E303CFA2
:1036C0008091E701811104C089E20E948F0CFDCE38
:1036D00085E3FBCF81608093460361E086950E947D
:1036E0000614A5CC49E254E162E374E10E940109A9
:1036F0009ECC42E354E169E274E1F8CF42ED53E13C
:103700006BED73E1F3CF42EA53E16EEA73E1EECF82
:1037100061E081E0E4CF0E947B149FEFE4E3FCE0F2
:103720009150E040F040E1F700C000000E948F0897
:1037300081E029C380E027C3C7010E94BF0CD82EB7
:1037400033C32F2D2F70C22E8F2D807F19F0C2947E
:1037500090EFC922DD20B9F0CC2069F080E28E0D17
:10376000883010F0811009C080914402C82AC092AC
:1037700044020E94620C8E2D4DC080914302C82AE3
:10378000C0924302F6CF8E2D0E94690FCC2009F41F
:1037900043C080E28E0D883010F0811004C08C2D63
:1037A0000E945B0C06C0C09480914302C822C09264
:1037B00043020E94620C30C03F2D3F70C32E8F2DFC
:1037C000807F803219F0C29480EFC822882089F06F
:1037D00081E0881609F47FC0DD2009F489C0BB2090
:1037E00009F47FC0F801858180FFC5CF8F70858384
:1037F00078C02091BD0222FF4BC0DD2009F442C0F9
:10380000CC2039F080914402C82AC09244020E9420
:10381000620C80E00E94BF0FE92DE850FF0B349747
:1038200010F40E94590FAA2009F4C3CB80914102E1
:1038300080FDBFCBF80112828595859585950E9404
:10384000700DC8010E94B41780914102859585953D
:10385000859562960FB6F894DEBF0FBECDBFDF919F
:10386000CF911F910F91FF90EF90DF90CF90BF907D
:10387000AF909F908F907F906F905F904F903F9010
:103880000C94480D80E00E94690FCC2029F287CF6C
:10389000DD20A1F0909145028C2D892BB11003C041
:1038A0000E94860DB9CFE1E0BE12FACF22FDB4CF5F
:1038B000981709F4B1CF80934502AECFB11006C07E
:1038C0000E94550C8C2D0E947F0DA6CFF1E0BF16F3
:1038D00009F4A2CFF5CFDD2031F025E02B1508F457
:1038E0009BCF8C2DDDCF34E03B1508F495CFEACF8C
:1038F000BB2041F3F9E38F1257C12FEF37EE83E07E
:10390000215030408040E1F700C000004DC18F2DB4
:1039100086958695837061F0813009F07DCFC7016F
:103920009370D11002C090E080E00E94C70874CF6D
:10393000C7019370D11002C090E080E00E94DD08C2
:103940006BCF8E2DDD20C1F10E94EB09EE2DE45FDF
:10395000FF0BE530F105B0F581E090E001C0880F84
:10396000EA95EAF726E0E8EEF1E0DE01179601902D
:103970000D922A95E1F726E0FE013796DE011D96AD
:1039800001900D922A95E1F72885DD20C1F0822B68
:103990008E8786E0FE013D96DE01119601900D9224
:1039A0008A95E1F786E0FE013196A8EEB1E001903C
:1039B0000D928A95E1F730CF0E943009C7CF8095EC
:1039C0008223E6CF0E94150927CF8F2D837091F5B2
:1039D000D11022CF4E2D429546954770440F440F8B
:1039E0008E2D8F70042E01C0880F0A94EAF72E2DB9
:1039F0002071E4FE07C02FE030E001C0220F4A959D
:103A0000EAF720953F2D369536953370323069F0C0
:103A100050F440914602313029F0822B84230E94D9
:103A20007B0DFACE842B822BFACF282B8091460275
:103A30008227F5CF8695DD2011F08F2D81708823A8
:103A400009F4EACE4E2D429546954770440F440F37
:103A50008E2D8F70042E01C0880F0A94EAF72E2D48
:103A60002071E4FE07C02FE030E001C0220F4A952C
:103A7000EAF720953F2D369536953370323069F050
:103A800050F440917303313029F0822B84230E943B
:103A9000300DC2CE842B822BFACF282B809173035A
:103AA0008227F5CFFF2DFF70FF2EDD2029F08F2F0D
:103AB0000E94700D8E2DF4CE8E2D0E947F0D8F2DC5
:103AC0000E94480DA9CE8E2D22EF8216B1F1281545
:103AD00070F030EF8316D1F091EF891691F0DD2070
:103AE00009F45DC0B11047CE8F2D8F712AC0E3EF6E
:103AF0008E1651F1F4EF8F12F2CF8091BD0282FF4A
:103B00002FC08F2D8F71DD20D9F21BC0DD2081F0F9
:103B100024E02B1508F480CE2F2D2F7181E090E04A
:103B200001C0880F2A95EAF7909173038927AFCFD8
:103B300035E03B1508F470CEEFCF8F2D8F71D1108B
:103B4000BFCF0E94700D68CE80E0DD2009F49FCFCA
:103B50009F2D9F7181E001C0880F9A95EAF797CF5A
:103B6000DD2091F08F2D8F71F82E0E94700D8091C5
:103B7000BD0282FD07C0E8E0FE9EC0011124836003
:103B8000809341028F2DDDCF81E00E94540DF1E042
:103B9000FB1508F041CE82E00E94540D3DCEBB20C3
:103BA00039F0893309F4A9CE8E2D0E94690F34CEE5
:103BB0008F2D8F7185CFF0E1EF16FFE5FF0609F439
:103BC00034CB21E1E2162FE5F20609F439CBF701F7
:103BD000E058FF45E830F10508F0C9CBE75BFE4C43
:103BE0000C94FE2F30E1E3163FE5F30609F424CBF5
:103BF00091E1E9169FE5F90651F782E01ECB85E0D9
:103C0000DE01119601900D928A95E1F7F80122816B
:103C100089819A812111E5C90E94BF0CF82EE9C95A
:103C2000F6E1EF16FCE5FF0609F44ACD8091440267
:103C3000827229ECE2162CE5F20609F464CD08F054
:103C400050C095ECE9169CE5F90609F457CD80F5CE
:103C5000F3ECEF16FCE5FF0609F444CD08F049CD7E
:103C600032ECE3163CE5F30609F08FC08091460381
:103C700080FF30CD8E7F8093460360914603709124
:103C8000470380914803909149030E949A128091C2
:103C9000FD0281608093FD022FEF30E782E021502A
:103CA00030408040E1F700C000000E94540EBFC9C0
:103CB0004AEB53E166EC73E197ECE9169CE5F906F3
:103CC00009F414CD4BED53E162ED73E1E8ECEE162F
:103CD000ECE5FE0608F40ACD46EC53E16AEB73E12D
:103CE00005CDFDECEF16FCE5FF0609F411CDC8F497
:103CF00044EE53E165EF73E13BECE3163CE5F3067C
:103D000009F4F4CC4EEA53E162EA73E19CECE91663
:103D10009CE5F90608F4EACC45EF53E164EE73E163
:103D2000E5CCE6EDEE16ECE5FE0608F480C9FDE50F
:103D3000EF16FF0609F47BC928C02AE5E2162DE537
:103D4000F20609F4F5CC68F4E1148CE5F80609F400
:103D5000E2CC9EEDE9169CE5F906B9F40E944F17F6
:103D600066C9EBE5EE16EDE5FE0609F4E3CCFCE5ED
:103D7000EF16FDE5FF0649F48091BD0282FB88271E
:103D800080F991E089270E94C111F8018281E080C9
:103D9000F180882309F4D0CCC7010E941112D82EDB
:103DA000682FC7010E94E70CB7018D2D0E940412F5
:103DB0000E94CD0A7C01882EF801D280B580B29491
:103DC0003FE0B322809141028770C1F0AD2CDD202D
:103DD000B1F08F2D807F803421F080E28E0D88300D
:103DE00068F08091BD0282FD09C082E00E94540DFE
:103DF000809141028770AA24A3948111A12C9F2C49
:103E000092942FE09222FBE0F91508F405CDE92DFC
:103E1000F0E0EF5AFE4C0C94FE2F1F93CF93DF93EC
:103E200080910E02807FA9F480910B02882389F093
:103E300080914002D0910F026091090270910A02B4
:103E4000A0910C02B0910D02C62FC72316E0D81323
:103E500004C0DF91CF911F91089590E0109711F069
:103E6000CF3F19F401968770F2CF189F9001199FE8
:103E7000300D1124F901E05FFD4F41814713F2CF6E
:103E800040814613EFCF42814111ECCF43815481F1
:103E90004A1B5B0B4837510528F780910E028F7043
:103EA000806180930E02F901EB5EFD4F80818F707F
:103EB0008061808389E092E00E94B417DF91CF9106
:103EC0001F910C94B50CAF92BF92CF92DF92EF92FC
:103ED000FF920F931F93CF93DF93CDB7DEB7619718
:103EE0000FB6F894DEBF0FBECDBF8C0185E0F801A0
:103EF000DE011D9601900D928A95E1F7F801E280AE
:103F000089E0A82E82E0B82E60910C0270910D021B
:103F10006115710509F432C19091090240910A02BC
:103F2000892F84238F3F09F429C120813181C380E7
:103F3000D480F0900B02F601E61BF70BFF2009F48A
:103F4000E8C080910E02582F507FE837F10508F045
:103F5000ABC0511177C0FE2C431321C092131FC078
:103F6000E1101DC08F70806180930E02C5010E9418
:103F7000B41780910E02F80185838F2D61960FB6DC
:103F8000F894DEBF0FBECDBFDF91CF911F910F918F
:103F9000FF90EF90DF90CF90BF90AF900895CD2825
:103FA00029F0822F83238F3F09F003C180E0F82F8F
:103FB000F170DF2E80FF3CC08091400240910F02E3
:103FC00056E0841315C02D873E878D859E850E94FF
:103FD0004012292F22952F702230F0F0243018F54E
:103FE0009F70F1F0F8019581907FD1F4D12C1EC023
:103FF00090E0589FF001599FF00D1124E05FFD4FB4
:104000006181361306C06081261303C06281E61207
:104010000FC001968770D5CF9F7011F0882331F3C0
:10402000805E883018F3C8010E94B417FD2CA5CF1C
:10403000EE2009F4A2CF80910E02816080930E02DF
:10404000F12C9BCF431306C0921304C0F801EE205D
:1040500009F479C0C8010E944C12882309F1EE20AE
:10406000F9F080910E02803270F0209109023091B7
:104070000A0238872F831986DB86CA868C87CE0191
:1040800007960E94B41786E0F801A9E0B2E001901B
:104090000D928A95E1F70E940D1FFF24F3946DCFD6
:1040A000C8010E94B417F9CF51110AC089E092E00B
:1040B0000E94B41786E0F50111928A95E9F7C0CF06
:1040C00043130FC092130DC0E1100BC0F80185839C
:1040D000C8010E94B41786E0F50111928A95E9F7AC
:1040E0004CCFC8010E944C128823D1F2EE20C1F2BD
:1040F00080910E02803238F22091090230910A023A
:104100003A8329831B82DD82CC828E83CE01019685
:10411000B8CFE837F105F8F6FE2CEE2009F243138C
:104120001FC092131DC080910E0280FD10C0982FF9
:10413000907F69F0F8018583903F31F0982F907F50
:10414000905F8F70892B8583C8010E94B41786E029
:10415000F801A9E0B2E001900D928A95E1F70DCF48
:10416000C8010E944C1281118ECF80910E02816095
:1041700080930E02C8010E94B417FFCEEE2009F40E
:104180008FCFC8010E944C12F82E882309F488CFE3
:1041900086E0F801A9E0B2E001900D928A95E1F77E
:1041A0008091090290910A020E9440120E940D1F04
:1041B000E4CE81E08E25FBCE1F93CF93DF93CDB766
:1041C000DEB767970FB6F894DEBF0FBECDBF4B8B3F
:1041D0005C8B6D8B7E8B8F8B6111109243021A8AE0
:1041E000198A85E0FE017396DE011D9601900D92FD
:1041F0008A95E1F786E0FE013D96DE011796019073
:104200000D928A95E1F7CE0107960E94631F8823DD
:1042100089F016E08091400290910F02891349C005
:1042200067960FB6F894DEBF0FBECDBFDF91CF917A
:104230001F91089586E0FE013796DE0111960190E8
:104240000D928A95E1F78A859B85892B11F38F81E1
:10425000988589238F3FE9F220910F0230E0C90150
:10426000019687709927409140024817190671F40A
:104270000E947B1410920F021092400286E0E9E047
:10428000F2E0DF011D928A95E9F7C3CF96E0929F95
:10429000D001939FB00D1124A05FBD4FFE01319658
:1042A00001900D929A95E1F780930F020E94B50C50
:1042B000B0CF819FC0011124805F9D4F0E94631F7A
:1042C000882309F4ADCF8091400290E00196877079
:1042D0009927809340029ECFEF92FF920F931F93F6
:1042E000CF93DF937901C82F880FDD0B411551055E
:1042F000A9F08AE08C9FF0018D9FF00D1124EF5EF4
:10430000FE4F838194818E5A9D4F228130E0421767
:10431000530708F49A01A9010E942631CE010E9498
:10432000112F892B11F501151105E9F08AE08C9FF9
:10433000F0018D9FF00D1124EF5EFE4F458150E09E
:104340000417150708F4A8018AE08C9FF0018D9FDF
:10435000F00D1124EF5EFE4F668177816E5A7D4F1E
:10436000C7010E94263181E001C080E0DF91CF913A
:104370001F910F91FF90EF9008950F931F93CF938C
:10438000DF93CDB7DEB728970FB6F894DEBF0FBE28
:10439000CDBF85E0E6E4F3E0DE01119601900D92D9
:1043A0008A95E1F78091FB029091FC02A091FD02B9
:1043B0008E839F83A88728854091B4025091B502CF
:1043C0006091B6027091B7023FB7F89480915203A2
:1043D00090915303A0915403B09155033FBF841BA8
:1043E000950BA60BB70B84369105A105B10510F40A
:1043F0002223C1F010E000E030E020E048E050E08F
:10440000BE016F5F7F4F83E00E946C21882369F0BB
:104410000E94AF086093B4027093B5028093B60215
:104420009093B7021092FD0281E028960FB6F8949F
:10443000DEBF0FBECDBFDF91CF911F910F910895C9
:104440000F931F93CF93DF9300D000D0CDB7DEB78B
:104450004091B0025091B1026091B2027091B302EA
:104460002FB7F8948091520390915303A091540375
:10447000B09155032FBF841B950BA60BB70B11E012
:1044800084369105A105B10538F10E94350F8823C6
:1044900069F10E94AF086E5F7F4F8F4F9F4F698316
:1044A0007A838B839C8310E000E030E020E044E0DE
:1044B00050E0BE016F5F7F4F82E00E946C21182F99
:1044C000882351F00E94AF086093B0027093B1024C
:1044D0008093B2029093B302812F0F900F900F90B0
:1044E0000F90DF91CF911F910F9108950E94AF0817
:1044F0000091B8021091B9022091BA023091BB022A
:10450000600F711F821F931FC6CFEF92FF920F9310
:104510001F93CF93DF9300D000D000D0CDB7DEB78C
:104520007B0101E010E09E012A5F3F4F50E040E038
:1045300070E060E080E00E946C21182F882309F46D
:104540004FC04091AC025091AD026091AE027091AB
:10455000AF022FB7F8948091520390915303A0912A
:104560005403B09155032FBF841B950BA60BB70BBB
:1045700084369105A105B10538F483E592E00E94E7
:10458000EA069E81891761F105E010E09E012F5F28
:104590003F4F50E040E070E060E081E00E946C211D
:1045A000082F83E592E00E94EA0611E09E819813AD
:1045B00010E0102301F10E94AF086093AC027093E9
:1045C000AD028093AE029093AF0285E0FE0131967A
:1045D000A7EAB2E001900D928A95E1F711E00BC0D5
:1045E00085E0E3E5F2E0DE01119601900D928A95F7
:1045F000E1F71111EACF85E0E7EAF2E0D701019097
:104600000D928A95E1F7812F26960FB6F894DEBFBA
:104610000FBECDBFDF91CF911F910F91FF90EF9013
:1046200008959F92AF92BF92CF92DF92EF92FF9246
:104630000F931F93CF93DF93CDB7DEB72F970FB6AE
:10464000F894DEBF0FBECDBF8E010F5F1F4F8AE013
:10465000D8011D928A95E9F784EAE82E81E0F82EC8
:10466000D12CC12CAA24A394B12CF70181917F01F4
:104670008F3F09F444C0F894E82FE295EF70F0E022
:1046800021A18F70A50102C0440F551F8A95E2F742
:10469000CA01922F982B91A392A18095892382A37E
:1046A0000E944F0A00C0EEEAF1E0912C31E0219126
:1046B0002F3F09F479C0A22FA295AF70B0E0909679
:1046C0008C9190E02F7002C0959587952A95E2F71E
:1046D00080FD6AC0832F982A330F51E0E53BF50730
:1046E00031F7F701319780818F3F11F00E94730AF3
:1046F00080EA8A95F1F7F801EC0DFD1D9082AFEF8D
:10470000CA1ADA0AB5E0CB16D10409F0AECF4AE0F6
:1047100050E0B8018EEB92E00E9419317C01892BA8
:1047200041F08AE0F801AEEBB2E001900D928A957B
:10473000E1F71091C902E114F104C1F181E0809325
:1047400049020E94BB0890934802809347028091DF
:104750004702909148020E94A008059778F0AEEBBE
:10476000B2E0E12FF0E0E552FD4F83EC92E02D91B5
:1047700021938A179B07D9F71092490281E090E0B4
:10478000EF28C1F02F960FB6F894DEBF0FBECDBF55
:10479000DF91CF911F910F91FF90EF90DF90CF901D
:1047A000BF90AF909F90089580E095CF809149028F
:1047B0008111CDCF0E94350FF82EE091C9028823D8
:1047C00009F470C06E01FBE0CF0ED11C85E0D6016C
:1047D0001D928A95E9F70E2F10E005521D4F80912A
:1047E000E5028A3060F545E852E2B601C8010E9450
:1047F000F10E882399F140E252E2B601C8010E940D
:10480000F10E882359F14DEB51E2B601C8010E9427
:10481000F10E882319F11092E5028091C80290E010
:1048200045E050E0B60185529D4F0E94193121E0CC
:1048300020935002892B49F5F12C8F2DA3CF809125
:104840004A0290914B020E94A008843F914058F682
:1048500080915002811112C080E094CF8091E502D6
:104860008F3F29F08F5F8093E5028A30B0F20E947B
:10487000BB0890934B0280934A02EACF85E0F60191
:1048800011928A95E9F710925002A091C802B0E007
:10489000A552BD4F85E0FE013B9601900D928A9591
:1048A000E1F7CBCFF0E0E552FD4FF89485E0A3E5CA
:1048B000B2E001900D928A95E1F783E592E00E94C3
:1048C000EA06809352020E944F0AF894C090580260
:1048D000D0905902E0905A02F0905B0280914C0215
:1048E00090914D02A0914E02B0914F02C816D90688
:1048F000EA06FB06D1F0C0924C02D0924D02E09243
:104900004E02F0924F020E94350F81110EC00E949C
:10491000AF08C61AD70AE80AF90AC092B802D092BC
:10492000B902E092BA02F092BB020E944F0AF894D8
:10493000809163028823F1F080FF0DC080915C02BA
:1049400080FF1BC09091460391609093460360E006
:1049500086950E9406148091630281FF09C020E0C1
:1049600040915F0260915E0280915D020E94AC12F4
:10497000109263020E944F0A6FCF0E94DC0EEBCFB1
:104980004F925F926F927F928F929F92AF92BF925F
:10499000CF92DF92EF92FF92CF93DF93CDB7DEB746
:1049A0006C970FB6F894DEBF0FBECDBF86E0E8EE81
:1049B000F1E0DE011D9601900D928A95E1F786E007
:1049C000FE013D96DE01119601900D928A95E1F768
:1049D00086E0FE013196DE01539601900D928A9594
:1049E000E1F70E9413113C010E94350F882309F45E
:1049F00085C18091E6019091E301891302C1962D52
:104A000097298111DFC009F0B5C0A0910201209162
:104A1000E80281E0820F8330E8F0022E000C330BB5
:104A20000A2E000CBB0B0E940B300E94B5306B01AC
:104A30007C012091E60281E0820F833088F0A09112
:104A40000101022E000C330B0A2E000CBB0B0E943E
:104A50000B300BC0622F220F770B880B990BE5CF21
:104A6000622F220F770B880B990B0E94B5304B01F8
:104A70005C01412C512C3201498E5A8E6B8E7C8EFA
:104A80001092E9021092E8021092E7021092E602F8
:104A9000C701B60190580E947D306D8BC501B401ED
:104AA0000E947D306E8BC301B2010E947D30619502
:104AB0006F8B698D7A8D8B8D9C8D0E947D30619579
:104AC000688F86E0FE017396DE01119601900D92CB
:104AD0008A95E1F786E0FE013196A8EEB1E00190FB
:104AE0000D928A95E1F786E0E8EEF1E0DE01179697
:104AF00001900D928A95E1F786E0EDEDF1E0DE019F
:104B0000119601900D928A95E1F746E050E0BE01C2
:104B10006F5F7F4FCE0107960E941931892B21F0DC
:104B200088EE91E00E94F3081092EA011092EB01E6
:104B30001092EC011092ED0186E0E8EEF1E0ADEDAF
:104B4000B1E001900D928A95E1F76C960FB6F8945A
:104B5000DEBF0FBECDBFDF91CF91FF90EF90DF9012
:104B6000CF90BF90AF909F908F907F906F905F900D
:104B70004F900895A091040181E0860D8330B0F03C
:104B8000262D660C330B0A2E000CBB0B0E940B303B
:104B90000E94B5306B017C0181E0870D833060F0AD
:104BA000A0910301272D770C330B4ECF662D660C99
:104BB000770B880B990BECCF672D770C770B880B55
:104BC000990B53CF911114C08091E8020E94B20D4D
:104BD000698F7A8F8B8F9C8F8091E6020E94900D57
:104BE0002B013C01812C912C54017501640148CFAB
:104BF000862D0E94B20D698F7A8F8B8F9C8F872DA7
:104C0000EDCF5090E80281113EC0A091040181E0F7
:104C1000860D833060F1262D660C330B0A2E000CB6
:104C2000BB0B0E940B300E94B5306B017C01A09140
:104C3000030181E0870D833000F1272D770C330BC2
:104C40000A2E000CBB0B0E940B300E94B5304B01AA
:104C50005C01852D0E94B20D698F7A8F8B8F9C8F9E
:104C60008091E6020E94900D2B013C0109CF662D38
:104C7000660C770B880B990BD6CF672D770C770BCB
:104C8000880B990BE2CFA091020181E0850D833062
:104C900048F1252D550C330B0A2E000CBB0B0E943E
:104CA0000B300E94B5306B017C01A0910101209175
:104CB000E60281E0820F8330D8F0022E000C330B25
:104CC0000A2E000CBB0B0E940B300E94B5304B012A
:104CD0005C01862D0E94B20D698F7A8F8B8F9C8F1D
:104CE000872DC0CF652D550C770B880B990BD9CF2D
:104CF000622F220F770B880B990BE7CF862D062C9E
:104D0000000C990B9093E9028093E802872D072C01
:104D1000000C990B9093E7028093E602662D660CD7
:104D2000770B880B990B0E94B5306B017C01672DC6
:104D3000770C770B880B990B0E94B5304B015C0107
:104D4000412C512C3201498E5A8E6B8E7C8EA0CE16
:104D500090E080E00E944330893E9E4F11F40C9415
:104D6000731280E008951F920F920FB60F921124D4
:104D70002F933F934F935F936F937F938F939F9363
:104D8000AF93BF93CF93DF93EF93FF93D091E9005D
:104D9000DF708091EC00C82FC17080FDC0E81092D8
:104DA000E9008091F000877F8093F00078940E9462
:104DB00086141092E9008091F00088608093F000E2
:104DC000CD2BCF70C093E900FF91EF91DF91CF9190
:104DD000BF91AF919F918F917F916F915F914F9113
:104DE0003F912F910F900FBE0F901F9018951F921B
:104DF0000F920FB60F9211242F933F934F935F930F
:104E00006F937F938F939F93AF93BF93EF93FF9392
:104E10008091E10082FF09C08091E20082FF05C01D
:104E20008091E1008B7F8093E1008091DA0080FF28
:104E300024C08091D80080FF20C08091DA008E7F4E
:104E40008093DA008091D90080FF9DC080E189BD08
:104E500082E189BD09B400FEFDCF81E08093660345
:104E600080915903811109C00E9401070E94CC075B
:104E70008091E20084608093E2008091E10080FFF5
:104E800017C08091E20080FF13C08091E2008E7F06
:104E90008093E2008091E20080618093E200809143
:104EA000D80080628093D80019BC85E080936603A7
:104EB0008091E10084FF2BC08091E20084FF27C035
:104EC00080E189BD82E189BD89B5982F917080FF0D
:104ED000FBCF8091D8008F7D8093D8008091E10036
:104EE0008F7E8093E1008091E2008F7E8093E200CC
:104EF0008091E20081608093E200809167038823C3
:104F000009F447C084E08093660380916603809132
:104F1000E10083FF27C08091E20083FF23C08091DE
:104F2000E100877F8093E10082E080936603109226
:104F300067038091E1008E7F8093E1008091E20021
:104F40008E7F8093E2008091E20080618093E20096
:104F500042E060E080E00E949A078091F000886063
:104F60008093F000FF91EF91BF91AF919F918F914E
:104F70007F916F915F914F913F912F910F900FBE55
:104F80000F901F90189519BC109266031092590348
:104F900074CF8091E30087FD93E090936603B5CFD3
:104FA00078941F921FB61F9211248F939F93AF93F3
:104FB000BF938091520390915303A0915403B091F9
:104FC00055030196A11DB11D809352039093530385
:104FD000A0935403B0935503BF91AF919F918F91CC
:104FE0001F901FBE1F9018951F921FB61F9211246D
:104FF0008F939F93AF93BF9380915103811113C0FF
:105000008091520390915303A0915403B0915503A2
:105010004196A11DB11D8093520390935303A09319
:105020005403B0935503BF91AF919F918F911F90FF
:105030001FBE1F901895CDB7DEB7AD970FB6F89489
:10504000DEBF0FBECDBF84B7877F84BF0FB6F89495
:10505000A895809160008861809360001092600044
:105060000FBE80E890E00FB6F894809361009093B3
:1050700061000FBE85B7806885BF85B7806885BF32
:105080008DE49AE09093D3018093D2010E940107AE
:105090000E94CC078091E20084608093E2007894C3
:1050A000809166038823A1F01091E9001F70909110
:1050B000EC00892F817090FD80E8182B1092E90098
:1050C0008091E80083FD0E9486141F701093E90010
:1050D00082E084BD93E095BD9AEF97BD80936E000A
:1050E0001092B8021092B9021092BA021092BB024A
:1050F0000E947312811102C00E94B2110E94350FEA
:105100008093000180910001882309F46AC0109205
:105110006B018CE080936C010E94350F81110E941D
:10512000FF2D809100018091000195E0811190E0B8
:105130009093C90285E0891B8093C80204EA11E0BC
:10514000D8018D918D018F3F11F00E94730AB1E05B
:10515000093A1B07A9F70EEA11E0A5EBEA2EA1E038
:10516000FA2EF80181918F018F3F11F00E94730A8E
:10517000E016F106B1F78AE0EBEDF2E0DF01282F4F
:105180001D922A95E9F7EEEBF2E0DF011D928A9578
:10519000E9F70E94A826811102C00E944F1782E001
:1051A00090E00E9435308093D0020E948C12909340
:1051B000BD028093BC020E941123EFE3FCE931970A
:1051C000F1F700C000000E9411238091DB0280FFF4
:1051D0000CC06FEF7FEF90E080E00E9467300E948C
:1051E0008F088CE080936B0195CF83E090E00E9464
:1051F00035300E947B0D0E944D140E94350F8111A5
:1052000002C00E94022E8091CA02811136C00E9403
:10521000A826811104C00E944F170E94361488E00E
:1052200090E00E943D306093460370934703809363
:105230004803909349038091FD0283608093FD02AF
:105240006E7F71F40E94361488E090E00E943D3039
:1052500060934603709347038093480390934903F8
:105260000E9406098091460380FF04C060E0869595
:105270000E94061481E08093CA023E9A519A209AB5
:1052800052985A98469A599A289A5A9A2898FAE01F
:10529000FA95F1F700C08AEB0E94D71025E32A9512
:1052A000F1F700008AE50E94D7104AE04A95F1F72D
:1052B00000C0599A289A8FE79FEAA2E08150904057
:1052C000A040E1F700C000000E9413118091D002BD
:1052D00083608093D00285E49AE090936A01809382
:1052E000690185E190E0909365018093640185E315
:1052F00090E0909368018093670183E190E00E94C1
:105300003D306093CB027093CC028093CD0290939A
:10531000CE02E62FF0E0EE0FFF1FEB54FE4F808130
:105320008093040180930301E72FF0E0EE0FFF1F4D
:10533000EB54FE4F8081809302018093010185E050
:1053400091E090934E0380934D03E8E1CE2ED12C53
:10535000F5EEEF2EF2E0FF2E50E4852E40E1942E84
:105360008091660312E1853009F4C5C10E941123C2
:1053700081110E94AF080BED12E0E1EDF2E0D801DF
:10538000B12CA12C4A2C6D908191861509F4C2C1D3
:105390008625512C77247394982F972109F4B5C151
:1053A0000E94350F882399F059A24AA2672081E014
:1053B00009F480E08BA30E94BB088160782F9DA335
:1053C0008CA349A15AA16BA18DA10E94DC20F501FB
:1053D000EF52FD4F80817826708286E0E5EFF2E0A3
:1053E000DE01119601900D928A95E1F77090F70217
:1053F0006090F802B090F902A090FA021092F702C1
:105400001092F8021092F9021092FA02872D862962
:1054100009F448C08091F3029091F4020E94A00820
:105420009C019091EF02992309F47FC32333310546
:10543000C8F19F3F19F09F5F9093EF02772059F0DA
:105440000E94CB099FEF17140CF491E0899F802DE7
:1054500011248093F702662059F00E94CB099FEF38
:1054600016140CF491E0899F802D11248093F8028A
:105470003091F7023323B1F02091F802222391F00A
:1054800045EB3403C0011124992309F45CC19093C6
:10549000F70245EB240390011124332309F457C18B
:1054A0003093F8028B2D8A2909F448C08091F102CB
:1054B0009091F2020E94A0089C019091EE02992323
:1054C00009F42EC325363105C8F19F3F19F09F5FBF
:1054D0009093EE02BB2059F00E94A9099FEF1B1484
:1054E0000CF491E0899F802D11248093F902AA2069
:1054F00059F00E94A9099FEF1A140CF491E0899FBA
:10550000802D11248093FA023091F9023323B1F0F7
:105510002091FA02222391F045EB3403C0011124BB
:10552000992309F418C19093F90245EB24039001E3
:105530001124332309F413C13093FA028091F70246
:105540009091F802892B9091F902892B9091FA029F
:10555000892B11F00E94150986E0FE013196A5EF16
:10556000B2E001900D928A95E1F70E94C0240E945A
:10557000590F9091CF02891721F00E94590F809303
:10558000CF0280916603843009F4EDC00E94350F8C
:10559000882309F4E5CE4091EA025091EB02609134
:1055A000EC027091ED022FB7F89480915203909124
:1055B0005303A0915403B09155032FBF841B950B47
:1055C000A60BB70B0B97A105B10508F4C7CE1BA618
:1055D0001CA688E08DA79091E5029A3008F0BCCE19
:1055E00089831A8282E08B831092450180935C014B
:1055F00010E000E030E020E043E050E0BE016F5FEB
:105600007F4F84E00E946C21882309F4A5CE30E00E
:1056100020E050E040E070E060E085E00E946C2116
:10562000882309F499CE30E020E041E050E0BE014B
:10563000635D7F4F86E00E946C21882309F48CCE45
:1056400002E010E09E01255D3F4F50E040E070E039
:1056500060E087E00E946C21882309F47DCE0E94DF
:10566000AF086093EA027093EB028093EC02909390
:10567000ED028BA590E09093E9028093E8028CA55F
:1056800090E09093E7028093E60266CE80916603F5
:10569000843019F10E94C024109251030FB6F8947F
:1056A000A895C09260000FBE8092600083B7817F92
:1056B000846083BF83B7816083BF7894889583B704
:1056C0008E7F83BF0FB6F894A895809160008861A3
:1056D00080936000109260000FBE80916503882364
:1056E00051F00E941123EBEDF2E081918111F9C19B
:1056F000EE16FF06D1F780916603853009F4C6CF18
:105700000E947B140E94590F31CE5394770C27E0EE
:10571000521242CE4FEFA41AB40A8AE0A816B1047E
:1057200009F030CE8FEF8EA38FA318A60E94BB087E
:105730008160782F9AA789A74EA15FA168A58AA545
:105740000E94DC204ACE81E08093F702A2CE81E065
:105750008093F802A7CE81E08093F902E6CE81E043
:105760008093FA02EBCE83E08093E9008091E80019
:1057700082FF0CCF8091E80090E085FF05C00E9479
:105780002007882399F091E08091E8008B7780933F
:10579000E800992309F4FACEE981E150E33108F0F9
:1057A00077C0F0E0E35AFE4C0C94FE2F30E2632EFB
:1057B000712CCE0101965C018091E80085FD0AC044
:1057C0008091E8008B778093E8000E94200788236F
:1057D00099F3D9CF8091F100D5018D935D01B1E0AE
:1057E0006B1A710849F7CFCF1A8289E08B8311C0F9
:1057F0008A81823009F48BC1833091F1813009F0C4
:1058000047C00E94AF080E9404306B837C838D8365
:105810009E8380916603843009F0B8CE1091E90030
:105820001F709091EC00892F817090FD80E8182BFB
:1058300082E08093E9008091E80080FF0DC050E095
:1058400040E060E270E0CE0101960E945107809135
:10585000E8008E778093E8001F701093E90096CEE1
:10586000FE013396D8018D918D018193EA16FB06D6
:10587000C9F7CFCF8A81823059F46B817C818D81C9
:105880009E810E94043086E290E00E944930C1CFA0
:105890008FEF8983BECF4C816B818A810E94DE119C
:1058A0009827892798279E838D83B3CFAD80BE80AC
:1058B000BA24AB24BA248A810B81BEE00B9F8001FD
:1058C0001124ECE88E9F000D111D11248C8190E0B5
:1058D000880F991F080F191F6B2DC80187960E940A
:1058E00049306A2DC8018896D0CF0E94451191CFCA
:1058F0008A818138C1F060F4803809F08ACF20E0D5
:105900004B8160914803809147030E94AC1281CF84
:105910008238E9F0833809F07CCF20E040914903D8
:105920006C818B81F2CF60E08B810E9406148B81A9
:10593000811103C00E94DC0E6CCF80914603816010
:105940008093460360E086950E94061462CF8B81A7
:1059500080934A035ECF8A81813899F030F4803891
:1059600009F057CF8091490341CF823891F08338B5
:1059700009F04FCF809147038B83809148038C833C
:1059800048CF8091460380FF02C086952FCF80E0EC
:105990002DCF80914A032ACF60914603709147032F
:1059A00080914803909149030E949A1232CF9A82C3
:1059B00030CF81E08A8389EA19CF0A811B811027C1
:1059C00001271027CE0101963C01AC80DC01AA0D15
:1059D000B11D5D01C801895A9D4FA614B70409F491
:1059E00018CF093AB1E01B0750F40E943530F3019B
:1059F00084830F5F1F4FBFEF6B1A7B0AEBCFD3017E
:105A000014961C92F6CF0A811B81102701271027BC
:105A1000FE0131963F01AC80A00EB12EB11CC80131
:105A2000895A9D4FA016B10609F4F3CE093AF1E068
:105A30001F0728F4D30114966C910E944930BFEFE0
:105A40006B1A7B0A0F5F1F4FEACF0E943511E1CE20
:105A500084E08A83DECE0A811B811027012710276C
:105A6000FE0131963F01AC80CF018A0D911D5C0192
:105A7000C8018796A614B70409F4CBCE0033A2E080
:105A80001A0750F40E943530F30184830F5F1F4FD3
:105A9000BFEF6B1A7B0AECCFD30114961C92F6CFA2
:105AA0000A811B81102701271027FE0131963F0133
:105AB000AC80A00EB12EB11CC8018796A016B1060D
:105AC00009F4A7CE0033F2E01F0728F4D30114969F
:105AD0006C910E944930BFEF6B1A7B0A0F5F1F4F1A
:105AE000EBCF99BC19BD09B400FEFDCF8091D80061
:105AF0008F7D8093D8008091E00082608093E000E9
:105B00008091E00081FDFCCF0E947B14F4CD86E201
:105B100090E00E9435301B821C821D828E8379CEDC
:105B20002D32314008F0D3CC09CD2D32314008F070
:105B300082CCB8CC84E1489B02C08150E1F7489BFD
:105B4000FECF0895589885E18A95F1F70000589A9C
:105B50000895FC013BE03A95F1F7000098E020E061
:105B600080E031E04AE04A95F1F700C0880F489B99
:105B700002C08160232742E04A95F1F700004AE025
:105B80004A95F1F700C0915069F79AE09A95F1F7BC
:105B900000C099B132E03A95F1F700004AE04A9529
:105BA000F1F700C0917092272081920F90830895A1
:105BB000EF92FF920F931F93CF93DF930F92CDB786
:105BC000DEB719828C017C01E60EF11C0E151F0553
:105BD00061F481E09981911180E00F90DF91CF9184
:105BE0001F910F91FF90EF9008950E949A2DCE0182
:105BF00001960E94A92DF80181938F01E7CF509A59
:105C0000589A08955098589AE89AE9E6F0E0808109
:105C10008C7F808308956150770B91E001C0990FCC
:105C20006A95EAF720E031E0911109C02223A1F042
:105C3000589A85E18A95F1F7000058980895492F00
:105C4000482341F0589A232745E14A95F1F700008F
:105C50009695EACF5898F8CF5898EBCFFF920F93CC
:105C60001F93CF93DF93EC018C01060F111DC0171A
:105C7000D10731F4DF91CF911F910F91FF900895DB
:105C8000F9900E94A22D68E08F2D0E940B2EEFCF7D
:105C90001F920F920FB60F921124EF92FF920F9363
:105CA0001F932F933F934F935F936F937F938F93A4
:105CB0009F93AF93BF93EF93FF93CF93DF930F9295
:105CC000CDB7DEB719820E949A2DCE0101960E94AF
:105CD000A92DA82FA695A695A695282F22952570C3
:105CE0009A2F9570290F922F937026952695920FD3
:105CF000982797708981982B09F078C0AA3008F00E
:105D000075C08AE08A95F1F700C0589A509AB2E0BF
:105D1000BA95F1F700C05898EA2EF12CEAE0AE9F50
:105D2000D0011124AF5EBE4F1896ED91FC911997EA
:105D30003097B1F06091A2017091A30116962D9158
:105D40003C911797260F371F13968D919C911497AE
:105D5000680F791F15964C91159712968C9109959D
:105D60008AE08E9DF0018F9DF00D1124EF5EFE4FB5
:105D70006581662351F02091A2013091A3018681B3
:105D80009781820F931F0E942E2E0E94A22DFAE06F
:105D9000FA95F1F700C058985098589A8AE08A9579
:105DA000F1F700C08AE08E9D80018F9D100D1124B7
:105DB0000F5E1E4FD80112966C911297662371F1F7
:105DC0002091A2013091A30113968D919C91820F95
:105DD000931F0E94D82DD801ED91FC91882311F0DA
:105DE00088E001C082E080830E949A2D0F90DF91AD
:105DF000CF91FF91EF91BF91AF919F918F917F9143
:105E00006F915F914F913F912F911F910F91FF9053
:105E1000EF900F900FBE0F901F901895ED91FC9191
:105E2000DFCF0F931F93CF93DF93EC010A970CF012
:105E3000ACC08AE08C9FF0018D9FF00D1124EF5EC5
:105E4000FE4F80819181892B09F49FC0F894509A6C
:105E5000589885E08A95F1F700008C2F869585701B
:105E60009C2F9570890F982F937086958695890F32
:105E70008E0193E0000F111F9A95E1F7082B0E9405
:105E8000A22D00C068E0802F0E940B2EAAE0AA95E8
:105E9000F1F700C05098589A489B27C087E090E0DF
:105EA000489925C08AE08C9F80018D9F100D112498
:105EB0000F5E1E4FF80165816623A1F12091A201BA
:105EC0003091A30186819781820F931F0E94D82D64
:105ED000811128C0509A589AD801ED91FC9182E026
:105EE0008083789482E090E016C000C0D5CF0197FF
:105EF000B9F4509A589A8AE08C9FF0018D9FF00D6A
:105F00001124EF5EFE4F0190F081E02D81E080834F
:105F1000789481E090E0DF91CF911F910F910895E7
:105F200000C0BECF0E949A2DB5E1BA95F1F70000EE
:105F30005898509AEAE0EA95F1F700C08AE08C9F01
:105F4000F0018D9FF00D1124EF5EFE4F62816623FC
:105F500051F02091A2013091A30183819481820F9D
:105F6000931F0E942E2E0E94A22D8AE08C9FF0018A
:105F70008D9FF00D1124EF5EFE4F0190F081E02D1A
:105F80001082789490E080E0C6CF84E090E0C3CFA8
:105F900087FB082E062687FD819567FD61950E9487
:105FA00029300EF4919507FC81950895AA1BBB1B1F
:105FB00051E107C0AA1FBB1FA617B70710F0A61B09
:105FC000B70B881F991F5A95A9F780959095BC012A
:105FD000CD01089597FB072E16F4009407D077FDA6
:105FE00009D00E94D62F07FC05D03EF490958195EC
:105FF0009F4F0895709561957F4F0895EE0FFF1F95
:106000000590F491E02D0994692796276927782750
:106010008727782708950E941330332312F48A1BB0
:106020009B0B0C942430A29FB001B39FC001A39F8F
:10603000700D811D1124911DB29F700D811D1124C1
:10604000911D08950E941330B7FF0895821B930B92
:106050000895991B79E004C0991F961708F0961BC4
:10606000881F7A95C9F780950895F999FECF92BD5A
:1060700081BDF89A992780B50895A6E1B0E044E083
:1060800050E00C946F30A8E1B0E042E050E00C9496
:106090006F30262FF999FECF92BD81BDF89A0197F6
:1060A00000B4021639F01FBA20BD0FB6F894FA9A60
:1060B000F99A0FBE08950396272F0E944A300E9436
:1060C0004930252F0E944A30242F0C944A300196E3
:1060D000272F0E944A300C944930DC01CB01FC018F
:1060E000F999FECF06C0F2BDE1BDF89A319600B431
:1060F0000D9241505040B8F708950E948430689442
:10610000B1110C94133108950E94F83088F09F5714
:1061100098F0B92F9927B751B0F0E1F0660F771FCB
:10612000881F991F1AF0BA95C9F714C0B13091F0C1
:106130000E941231B1E008950C941231672F782F2C
:106140008827B85F39F0B93FCCF386957795679586
:10615000B395D9F73EF490958095709561957F4FF2
:106160008F4F9F4F0895E89409C097FB3EF4909598
:106170008095709561957F4F8F4F9F4F9923A9F020
:10618000F92F96E9BB279395F695879577956795AF
:10619000B795F111F8CFFAF4BB0F11F460FF1BC0F3
:1061A0006F5F7F4F8F4F9F4F16C0882311F096E986
:1061B00011C0772321F09EE8872F762F05C0662334
